{
  "address": "0x15Ca82DbEdB420711456695A02D80CC8896dcE89",
  "abi": [
    {
      "inputs": [
        {
          "internalType": "string",
          "name": "_initBaseURI",
          "type": "string"
        }
      ],
      "stateMutability": "nonpayable",
      "type": "constructor"
    },
    {
      "anonymous": false,
      "inputs": [
        {
          "indexed": true,
          "internalType": "address",
          "name": "owner",
          "type": "address"
        },
        {
          "indexed": true,
          "internalType": "address",
          "name": "approved",
          "type": "address"
        },
        {
          "indexed": true,
          "internalType": "uint256",
          "name": "tokenId",
          "type": "uint256"
        }
      ],
      "name": "Approval",
      "type": "event"
    },
    {
      "anonymous": false,
      "inputs": [
        {
          "indexed": true,
          "internalType": "address",
          "name": "owner",
          "type": "address"
        },
        {
          "indexed": true,
          "internalType": "address",
          "name": "operator",
          "type": "address"
        },
        {
          "indexed": false,
          "internalType": "bool",
          "name": "approved",
          "type": "bool"
        }
      ],
      "name": "ApprovalForAll",
      "type": "event"
    },
    {
      "anonymous": false,
      "inputs": [
        {
          "indexed": true,
          "internalType": "address",
          "name": "previousOwner",
          "type": "address"
        },
        {
          "indexed": true,
          "internalType": "address",
          "name": "newOwner",
          "type": "address"
        }
      ],
      "name": "OwnershipTransferred",
      "type": "event"
    },
    {
      "anonymous": false,
      "inputs": [
        {
          "indexed": true,
          "internalType": "address",
          "name": "from",
          "type": "address"
        },
        {
          "indexed": true,
          "internalType": "address",
          "name": "to",
          "type": "address"
        },
        {
          "indexed": true,
          "internalType": "uint256",
          "name": "tokenId",
          "type": "uint256"
        }
      ],
      "name": "Transfer",
      "type": "event"
    },
    {
      "inputs": [
        {
          "internalType": "address",
          "name": "to",
          "type": "address"
        },
        {
          "internalType": "uint256",
          "name": "tokenId",
          "type": "uint256"
        }
      ],
      "name": "approve",
      "outputs": [],
      "stateMutability": "nonpayable",
      "type": "function"
    },
    {
      "inputs": [
        {
          "internalType": "address",
          "name": "owner",
          "type": "address"
        }
      ],
      "name": "balanceOf",
      "outputs": [
        {
          "internalType": "uint256",
          "name": "",
          "type": "uint256"
        }
      ],
      "stateMutability": "view",
      "type": "function"
    },
    {
      "inputs": [
        {
          "internalType": "uint256",
          "name": "tokenId",
          "type": "uint256"
        }
      ],
      "name": "getApproved",
      "outputs": [
        {
          "internalType": "address",
          "name": "",
          "type": "address"
        }
      ],
      "stateMutability": "view",
      "type": "function"
    },
    {
      "inputs": [],
      "name": "getContractBalance",
      "outputs": [
        {
          "internalType": "uint256",
          "name": "",
          "type": "uint256"
        }
      ],
      "stateMutability": "view",
      "type": "function"
    },
    {
      "inputs": [],
      "name": "getcost",
      "outputs": [
        {
          "internalType": "uint256",
          "name": "",
          "type": "uint256"
        }
      ],
      "stateMutability": "view",
      "type": "function"
    },
    {
      "inputs": [],
      "name": "i_maxSupply",
      "outputs": [
        {
          "internalType": "uint256",
          "name": "",
          "type": "uint256"
        }
      ],
      "stateMutability": "view",
      "type": "function"
    },
    {
      "inputs": [
        {
          "internalType": "address",
          "name": "owner",
          "type": "address"
        },
        {
          "internalType": "address",
          "name": "operator",
          "type": "address"
        }
      ],
      "name": "isApprovedForAll",
      "outputs": [
        {
          "internalType": "bool",
          "name": "",
          "type": "bool"
        }
      ],
      "stateMutability": "view",
      "type": "function"
    },
    {
      "inputs": [
        {
          "internalType": "uint256",
          "name": "_mintAmount",
          "type": "uint256"
        }
      ],
      "name": "mint",
      "outputs": [],
      "stateMutability": "payable",
      "type": "function"
    },
    {
      "inputs": [],
      "name": "name",
      "outputs": [
        {
          "internalType": "string",
          "name": "",
          "type": "string"
        }
      ],
      "stateMutability": "view",
      "type": "function"
    },
    {
      "inputs": [],
      "name": "owner",
      "outputs": [
        {
          "internalType": "address",
          "name": "",
          "type": "address"
        }
      ],
      "stateMutability": "view",
      "type": "function"
    },
    {
      "inputs": [
        {
          "internalType": "uint256",
          "name": "tokenId",
          "type": "uint256"
        }
      ],
      "name": "ownerOf",
      "outputs": [
        {
          "internalType": "address",
          "name": "",
          "type": "address"
        }
      ],
      "stateMutability": "view",
      "type": "function"
    },
    {
      "inputs": [],
      "name": "renounceOwnership",
      "outputs": [],
      "stateMutability": "nonpayable",
      "type": "function"
    },
    {
      "inputs": [],
      "name": "s_cost",
      "outputs": [
        {
          "internalType": "uint256",
          "name": "",
          "type": "uint256"
        }
      ],
      "stateMutability": "view",
      "type": "function"
    },
    {
      "inputs": [
        {
          "internalType": "address",
          "name": "from",
          "type": "address"
        },
        {
          "internalType": "address",
          "name": "to",
          "type": "address"
        },
        {
          "internalType": "uint256",
          "name": "tokenId",
          "type": "uint256"
        }
      ],
      "name": "safeTransferFrom",
      "outputs": [],
      "stateMutability": "nonpayable",
      "type": "function"
    },
    {
      "inputs": [
        {
          "internalType": "address",
          "name": "from",
          "type": "address"
        },
        {
          "internalType": "address",
          "name": "to",
          "type": "address"
        },
        {
          "internalType": "uint256",
          "name": "tokenId",
          "type": "uint256"
        },
        {
          "internalType": "bytes",
          "name": "data",
          "type": "bytes"
        }
      ],
      "name": "safeTransferFrom",
      "outputs": [],
      "stateMutability": "nonpayable",
      "type": "function"
    },
    {
      "inputs": [
        {
          "internalType": "address",
          "name": "operator",
          "type": "address"
        },
        {
          "internalType": "bool",
          "name": "approved",
          "type": "bool"
        }
      ],
      "name": "setApprovalForAll",
      "outputs": [],
      "stateMutability": "nonpayable",
      "type": "function"
    },
    {
      "inputs": [
        {
          "internalType": "string",
          "name": "_newBaseURI",
          "type": "string"
        }
      ],
      "name": "setBaseURI",
      "outputs": [],
      "stateMutability": "nonpayable",
      "type": "function"
    },
    {
      "inputs": [
        {
          "internalType": "uint256",
          "name": "_newCost",
          "type": "uint256"
        }
      ],
      "name": "setCost",
      "outputs": [],
      "stateMutability": "nonpayable",
      "type": "function"
    },
    {
      "inputs": [
        {
          "internalType": "uint256",
          "name": "_newmaxMintAmount",
          "type": "uint256"
        }
      ],
      "name": "setmaxMintAmount",
      "outputs": [],
      "stateMutability": "nonpayable",
      "type": "function"
    },
    {
      "inputs": [
        {
          "internalType": "uint256",
          "name": "_newmaxSupply",
          "type": "uint256"
        }
      ],
      "name": "setmaxSupply",
      "outputs": [],
      "stateMutability": "nonpayable",
      "type": "function"
    },
    {
      "inputs": [
        {
          "internalType": "bytes4",
          "name": "interfaceId",
          "type": "bytes4"
        }
      ],
      "name": "supportsInterface",
      "outputs": [
        {
          "internalType": "bool",
          "name": "",
          "type": "bool"
        }
      ],
      "stateMutability": "view",
      "type": "function"
    },
    {
      "inputs": [],
      "name": "symbol",
      "outputs": [
        {
          "internalType": "string",
          "name": "",
          "type": "string"
        }
      ],
      "stateMutability": "view",
      "type": "function"
    },
    {
      "inputs": [
        {
          "internalType": "uint256",
          "name": "index",
          "type": "uint256"
        }
      ],
      "name": "tokenByIndex",
      "outputs": [
        {
          "internalType": "uint256",
          "name": "",
          "type": "uint256"
        }
      ],
      "stateMutability": "view",
      "type": "function"
    },
    {
      "inputs": [
        {
          "internalType": "address",
          "name": "owner",
          "type": "address"
        },
        {
          "internalType": "uint256",
          "name": "index",
          "type": "uint256"
        }
      ],
      "name": "tokenOfOwnerByIndex",
      "outputs": [
        {
          "internalType": "uint256",
          "name": "",
          "type": "uint256"
        }
      ],
      "stateMutability": "view",
      "type": "function"
    },
    {
      "inputs": [
        {
          "internalType": "uint256",
          "name": "tokenId",
          "type": "uint256"
        }
      ],
      "name": "tokenURI",
      "outputs": [
        {
          "internalType": "string",
          "name": "",
          "type": "string"
        }
      ],
      "stateMutability": "view",
      "type": "function"
    },
    {
      "inputs": [],
      "name": "totalSupply",
      "outputs": [
        {
          "internalType": "uint256",
          "name": "",
          "type": "uint256"
        }
      ],
      "stateMutability": "view",
      "type": "function"
    },
    {
      "inputs": [
        {
          "internalType": "address",
          "name": "from",
          "type": "address"
        },
        {
          "internalType": "address",
          "name": "to",
          "type": "address"
        },
        {
          "internalType": "uint256",
          "name": "tokenId",
          "type": "uint256"
        }
      ],
      "name": "transferFrom",
      "outputs": [],
      "stateMutability": "nonpayable",
      "type": "function"
    },
    {
      "inputs": [
        {
          "internalType": "address",
          "name": "newOwner",
          "type": "address"
        }
      ],
      "name": "transferOwnership",
      "outputs": [],
      "stateMutability": "nonpayable",
      "type": "function"
    },
    {
      "inputs": [],
      "name": "withdraw",
      "outputs": [],
      "stateMutability": "payable",
      "type": "function"
    }
  ],
  "transactionHash": "0xe44f00dc8660b5584c1bb14069e6cb01aa5d7061c3be8032d74b8e9d5348b422",
  "args": [
    "ipfs://QmRNDPoUQHPasK2YcPLLpBkBeayhNEejNKwbiydiSAAAjy/"
  ],
  "numDeployments": 33,
  "solcInputHash": "f00c072c3b7068482c6a056327074d1e",
  "bytecode": "0x60806040526040518060400160405280600581526020017f2e6a736f6e000000000000000000000000000000000000000000000000000000815250600c90805190602001906200005192919062000328565b50666a94d74f430000600d55613fcd600e5560de600f553480156200007557600080fd5b50604051620041013803806200410183398181016040528101906200009b919062000575565b6040518060400160405280600b81526020017f4e46545f3258526f626f740000000000000000000000000000000000000000008152506040518060400160405280600381526020017f325852000000000000000000000000000000000000000000000000000000000081525081600090805190602001906200011f92919062000328565b5080600190805190602001906200013892919062000328565b5050506200015b6200014f6200017360201b60201c565b6200017b60201b60201c565b6200016c816200024160201b60201c565b50620006ae565b600033905090565b6000600a60009054906101000a900473ffffffffffffffffffffffffffffffffffffffff16905081600a60006101000a81548173ffffffffffffffffffffffffffffffffffffffff021916908373ffffffffffffffffffffffffffffffffffffffff1602179055508173ffffffffffffffffffffffffffffffffffffffff168173ffffffffffffffffffffffffffffffffffffffff167f8be0079c531659141344cd1fd0a4f28419497f9722a3daafe3b4186f6b6457e060405160405180910390a35050565b620002516200026d60201b60201c565b80600b90805190602001906200026992919062000328565b5050565b6200027d6200017360201b60201c565b73ffffffffffffffffffffffffffffffffffffffff16620002a3620002fe60201b60201c565b73ffffffffffffffffffffffffffffffffffffffff1614620002fc576040517f08c379a0000000000000000000000000000000000000000000000000000000008152600401620002f39062000627565b60405180910390fd5b565b6000600a60009054906101000a900473ffffffffffffffffffffffffffffffffffffffff16905090565b828054620003369062000678565b90600052602060002090601f0160209004810192826200035a5760008555620003a6565b82601f106200037557805160ff1916838001178555620003a6565b82800160010185558215620003a6579182015b82811115620003a557825182559160200191906001019062000388565b5b509050620003b59190620003b9565b5090565b5b80821115620003d4576000816000905550600101620003ba565b5090565b6000604051905090565b600080fd5b600080fd5b600080fd5b600080fd5b6000601f19601f8301169050919050565b7f4e487b7100000000000000000000000000000000000000000000000000000000600052604160045260246000fd5b6200044182620003f6565b810181811067ffffffffffffffff8211171562000463576200046262000407565b5b80604052505050565b600062000478620003d8565b905062000486828262000436565b919050565b600067ffffffffffffffff821115620004a957620004a862000407565b5b620004b482620003f6565b9050602081019050919050565b60005b83811015620004e1578082015181840152602081019050620004c4565b83811115620004f1576000848401525b50505050565b60006200050e62000508846200048b565b6200046c565b9050828152602081018484840111156200052d576200052c620003f1565b5b6200053a848285620004c1565b509392505050565b600082601f8301126200055a5762000559620003ec565b5b81516200056c848260208601620004f7565b91505092915050565b6000602082840312156200058e576200058d620003e2565b5b600082015167ffffffffffffffff811115620005af57620005ae620003e7565b5b620005bd8482850162000542565b91505092915050565b600082825260208201905092915050565b7f4f776e61626c653a2063616c6c6572206973206e6f7420746865206f776e6572600082015250565b60006200060f602083620005c6565b91506200061c82620005d7565b602082019050919050565b60006020820190508181036000830152620006428162000600565b9050919050565b7f4e487b7100000000000000000000000000000000000000000000000000000000600052602260045260246000fd5b600060028204905060018216806200069157607f821691505b60208210811415620006a857620006a762000649565b5b50919050565b613a4380620006be6000396000f3fe6080604052600436106101c25760003560e01c8063646cfb6f116100f757806395d89b4111610095578063b88d4fde11610064578063b88d4fde14610612578063c87b56dd1461063b578063e985e9c514610678578063f2fde38b146106b5576101c2565b806395d89b4114610577578063a0712d68146105a2578063a22cb465146105be578063af547af0146105e7576101c2565b8063715018a6116100d1578063715018a6146104e15780637f00c7a6146104f85780638583ff24146105215780638da5cb5b1461054c576101c2565b8063646cfb6f1461044e5780636f9fb98a1461047957806370a08231146104a4576101c2565b80632f745c591161016457806344a0d68a1161013e57806344a0d68a146103825780634f6ccce7146103ab57806355f804b3146103e85780636352211e14610411576101c2565b80632f745c59146103125780633ccfd60b1461034f57806342842e0e14610359576101c2565b8063095ea7b3116101a0578063095ea7b31461026c57806318160ddd14610295578063228025e8146102c057806323b872dd146102e9576101c2565b806301ffc9a7146101c757806306fdde0314610204578063081812fc1461022f575b600080fd5b3480156101d357600080fd5b506101ee60048036038101906101e99190612596565b6106de565b6040516101fb91906125de565b60405180910390f35b34801561021057600080fd5b50610219610758565b6040516102269190612692565b60405180910390f35b34801561023b57600080fd5b50610256600480360381019061025191906126ea565b6107ea565b6040516102639190612758565b60405180910390f35b34801561027857600080fd5b50610293600480360381019061028e919061279f565b610830565b005b3480156102a157600080fd5b506102aa610948565b6040516102b791906127ee565b60405180910390f35b3480156102cc57600080fd5b506102e760048036038101906102e291906126ea565b610955565b005b3480156102f557600080fd5b50610310600480360381019061030b9190612809565b610967565b005b34801561031e57600080fd5b506103396004803603810190610334919061279f565b6109c7565b60405161034691906127ee565b60405180910390f35b610357610a6c565b005b34801561036557600080fd5b50610380600480360381019061037b9190612809565b610af4565b005b34801561038e57600080fd5b506103a960048036038101906103a491906126ea565b610b14565b005b3480156103b757600080fd5b506103d260048036038101906103cd91906126ea565b610b26565b6040516103df91906127ee565b60405180910390f35b3480156103f457600080fd5b5061040f600480360381019061040a9190612991565b610b97565b005b34801561041d57600080fd5b50610438600480360381019061043391906126ea565b610bb9565b6040516104459190612758565b60405180910390f35b34801561045a57600080fd5b50610463610c6b565b60405161047091906127ee565b60405180910390f35b34801561048557600080fd5b5061048e610c71565b60405161049b91906127ee565b60405180910390f35b3480156104b057600080fd5b506104cb60048036038101906104c691906129da565b610c81565b6040516104d891906127ee565b60405180910390f35b3480156104ed57600080fd5b506104f6610d39565b005b34801561050457600080fd5b5061051f600480360381019061051a91906126ea565b610d4d565b005b34801561052d57600080fd5b50610536610d5f565b60405161054391906127ee565b60405180910390f35b34801561055857600080fd5b50610561610d69565b60405161056e9190612758565b60405180910390f35b34801561058357600080fd5b5061058c610d93565b6040516105999190612692565b60405180910390f35b6105bc60048036038101906105b791906126ea565b610e25565b005b3480156105ca57600080fd5b506105e560048036038101906105e09190612a33565b610f56565b005b3480156105f357600080fd5b506105fc610f6c565b60405161060991906127ee565b60405180910390f35b34801561061e57600080fd5b5061063960048036038101906106349190612b14565b610f72565b005b34801561064757600080fd5b50610662600480360381019061065d91906126ea565b610fd4565b60405161066f9190612692565b60405180910390f35b34801561068457600080fd5b5061069f600480360381019061069a9190612b97565b61107e565b6040516106ac91906125de565b60405180910390f35b3480156106c157600080fd5b506106dc60048036038101906106d791906129da565b611112565b005b60007f780e9d63000000000000000000000000000000000000000000000000000000007bffffffffffffffffffffffffffffffffffffffffffffffffffffffff1916827bffffffffffffffffffffffffffffffffffffffffffffffffffffffff19161480610751575061075082611196565b5b9050919050565b60606000805461076790612c06565b80601f016020809104026020016040519081016040528092919081815260200182805461079390612c06565b80156107e05780601f106107b5576101008083540402835291602001916107e0565b820191906000526020600020905b8154815290600101906020018083116107c357829003601f168201915b5050505050905090565b60006107f582611278565b6004600083815260200190815260200160002060009054906101000a900473ffffffffffffffffffffffffffffffffffffffff169050919050565b600061083b82610bb9565b90508073ffffffffffffffffffffffffffffffffffffffff168373ffffffffffffffffffffffffffffffffffffffff1614156108ac576040517f08c379a00000000000000000000000000000000000000000000000000000000081526004016108a390612caa565b60405180910390fd5b8073ffffffffffffffffffffffffffffffffffffffff166108cb6112c3565b73ffffffffffffffffffffffffffffffffffffffff1614806108fa57506108f9816108f46112c3565b61107e565b5b610939576040517f08c379a000000000000000000000000000000000000000000000000000000000815260040161093090612d3c565b60405180910390fd5b61094383836112cb565b505050565b6000600880549050905090565b61095d611384565b80600e8190555050565b6109786109726112c3565b82611402565b6109b7576040517f08c379a00000000000000000000000000000000000000000000000000000000081526004016109ae90612dce565b60405180910390fd5b6109c2838383611497565b505050565b60006109d283610c81565b8210610a13576040517f08c379a0000000000000000000000000000000000000000000000000000000008152600401610a0a90612e60565b60405180910390fd5b600660008473ffffffffffffffffffffffffffffffffffffffff1673ffffffffffffffffffffffffffffffffffffffff168152602001908152602001600020600083815260200190815260200160002054905092915050565b610a74611384565b6000610a7e610d69565b73ffffffffffffffffffffffffffffffffffffffff1647604051610aa190612eb1565b60006040518083038185875af1925050503d8060008114610ade576040519150601f19603f3d011682016040523d82523d6000602084013e610ae3565b606091505b5050905080610af157600080fd5b50565b610b0f83838360405180602001604052806000815250610f72565b505050565b610b1c611384565b80600d8190555050565b6000610b30610948565b8210610b71576040517f08c379a0000000000000000000000000000000000000000000000000000000008152600401610b6890612f38565b60405180910390fd5b60088281548110610b8557610b84612f58565b5b90600052602060002001549050919050565b610b9f611384565b80600b9080519060200190610bb5929190612487565b5050565b6000806002600084815260200190815260200160002060009054906101000a900473ffffffffffffffffffffffffffffffffffffffff169050600073ffffffffffffffffffffffffffffffffffffffff168173ffffffffffffffffffffffffffffffffffffffff161415610c62576040517f08c379a0000000000000000000000000000000000000000000000000000000008152600401610c5990612fd3565b60405180910390fd5b80915050919050565b600e5481565b6000610c7b611384565b47905090565b60008073ffffffffffffffffffffffffffffffffffffffff168273ffffffffffffffffffffffffffffffffffffffff161415610cf2576040517f08c379a0000000000000000000000000000000000000000000000000000000008152600401610ce990613065565b60405180910390fd5b600360008373ffffffffffffffffffffffffffffffffffffffff1673ffffffffffffffffffffffffffffffffffffffff168152602001908152602001600020549050919050565b610d41611384565b610d4b60006116fe565b565b610d55611384565b80600f8190555050565b6000600d54905090565b6000600a60009054906101000a900473ffffffffffffffffffffffffffffffffffffffff16905090565b606060018054610da290612c06565b80601f0160208091040260200160405190810160405280929190818152602001828054610dce90612c06565b8015610e1b5780601f10610df057610100808354040283529160200191610e1b565b820191906000526020600020905b815481529060010190602001808311610dfe57829003601f168201915b5050505050905090565b6000610e2f610948565b9050600f54821115610e4057600080fd5b600e548282610e4f91906130b4565b1115610e90576040517f08c379a0000000000000000000000000000000000000000000000000000000008152600401610e879061317c565b60405180910390fd5b610e98610d69565b73ffffffffffffffffffffffffffffffffffffffff163373ffffffffffffffffffffffffffffffffffffffff1614610f1b5781600d54610ed8919061319c565b341015610f1a576040517f08c379a0000000000000000000000000000000000000000000000000000000008152600401610f1190613242565b60405180910390fd5b5b6000600190505b828111610f5157610f3e338284610f3991906130b4565b6117c4565b8080610f4990613262565b915050610f22565b505050565b610f68610f616112c3565b83836117e2565b5050565b600d5481565b610f83610f7d6112c3565b83611402565b610fc2576040517f08c379a0000000000000000000000000000000000000000000000000000000008152600401610fb990612dce565b60405180910390fd5b610fce8484848461194f565b50505050565b6060610fdf826119ab565b61101e576040517f08c379a00000000000000000000000000000000000000000000000000000000081526004016110159061331d565b60405180910390fd5b6000611028611a17565b905060008151116110485760405180602001604052806000815250611076565b8061105284611aa9565b600c6040516020016110669392919061340d565b6040516020818303038152906040525b915050919050565b6000600560008473ffffffffffffffffffffffffffffffffffffffff1673ffffffffffffffffffffffffffffffffffffffff16815260200190815260200160002060008373ffffffffffffffffffffffffffffffffffffffff1673ffffffffffffffffffffffffffffffffffffffff16815260200190815260200160002060009054906101000a900460ff16905092915050565b61111a611384565b600073ffffffffffffffffffffffffffffffffffffffff168173ffffffffffffffffffffffffffffffffffffffff16141561118a576040517f08c379a0000000000000000000000000000000000000000000000000000000008152600401611181906134b0565b60405180910390fd5b611193816116fe565b50565b60007f80ac58cd000000000000000000000000000000000000000000000000000000007bffffffffffffffffffffffffffffffffffffffffffffffffffffffff1916827bffffffffffffffffffffffffffffffffffffffffffffffffffffffff1916148061126157507f5b5e139f000000000000000000000000000000000000000000000000000000007bffffffffffffffffffffffffffffffffffffffffffffffffffffffff1916827bffffffffffffffffffffffffffffffffffffffffffffffffffffffff1916145b80611271575061127082611c0a565b5b9050919050565b611281816119ab565b6112c0576040517f08c379a00000000000000000000000000000000000000000000000000000000081526004016112b790612fd3565b60405180910390fd5b50565b600033905090565b816004600083815260200190815260200160002060006101000a81548173ffffffffffffffffffffffffffffffffffffffff021916908373ffffffffffffffffffffffffffffffffffffffff160217905550808273ffffffffffffffffffffffffffffffffffffffff1661133e83610bb9565b73ffffffffffffffffffffffffffffffffffffffff167f8c5be1e5ebec7d5bd14f71427d1e84f3dd0314c0f7b2291e5b200ac8c7c3b92560405160405180910390a45050565b61138c6112c3565b73ffffffffffffffffffffffffffffffffffffffff166113aa610d69565b73ffffffffffffffffffffffffffffffffffffffff1614611400576040517f08c379a00000000000000000000000000000000000000000000000000000000081526004016113f79061351c565b60405180910390fd5b565b60008061140e83610bb9565b90508073ffffffffffffffffffffffffffffffffffffffff168473ffffffffffffffffffffffffffffffffffffffff161480611450575061144f818561107e565b5b8061148e57508373ffffffffffffffffffffffffffffffffffffffff16611476846107ea565b73ffffffffffffffffffffffffffffffffffffffff16145b91505092915050565b8273ffffffffffffffffffffffffffffffffffffffff166114b782610bb9565b73ffffffffffffffffffffffffffffffffffffffff161461150d576040517f08c379a0000000000000000000000000000000000000000000000000000000008152600401611504906135ae565b60405180910390fd5b600073ffffffffffffffffffffffffffffffffffffffff168273ffffffffffffffffffffffffffffffffffffffff16141561157d576040517f08c379a000000000000000000000000000000000000000000000000000000000815260040161157490613640565b60405180910390fd5b611588838383611c74565b6115936000826112cb565b6001600360008573ffffffffffffffffffffffffffffffffffffffff1673ffffffffffffffffffffffffffffffffffffffff16815260200190815260200160002060008282546115e39190613660565b925050819055506001600360008473ffffffffffffffffffffffffffffffffffffffff1673ffffffffffffffffffffffffffffffffffffffff168152602001908152602001600020600082825461163a91906130b4565b92505081905550816002600083815260200190815260200160002060006101000a81548173ffffffffffffffffffffffffffffffffffffffff021916908373ffffffffffffffffffffffffffffffffffffffff160217905550808273ffffffffffffffffffffffffffffffffffffffff168473ffffffffffffffffffffffffffffffffffffffff167fddf252ad1be2c89b69c2b068fc378daa952ba7f163c4a11628f55a4df523b3ef60405160405180910390a46116f9838383611d88565b505050565b6000600a60009054906101000a900473ffffffffffffffffffffffffffffffffffffffff16905081600a60006101000a81548173ffffffffffffffffffffffffffffffffffffffff021916908373ffffffffffffffffffffffffffffffffffffffff1602179055508173ffffffffffffffffffffffffffffffffffffffff168173ffffffffffffffffffffffffffffffffffffffff167f8be0079c531659141344cd1fd0a4f28419497f9722a3daafe3b4186f6b6457e060405160405180910390a35050565b6117de828260405180602001604052806000815250611d8d565b5050565b8173ffffffffffffffffffffffffffffffffffffffff168373ffffffffffffffffffffffffffffffffffffffff161415611851576040517f08c379a0000000000000000000000000000000000000000000000000000000008152600401611848906136e0565b60405180910390fd5b80600560008573ffffffffffffffffffffffffffffffffffffffff1673ffffffffffffffffffffffffffffffffffffffff16815260200190815260200160002060008473ffffffffffffffffffffffffffffffffffffffff1673ffffffffffffffffffffffffffffffffffffffff16815260200190815260200160002060006101000a81548160ff0219169083151502179055508173ffffffffffffffffffffffffffffffffffffffff168373ffffffffffffffffffffffffffffffffffffffff167f17307eab39ab6107e8899845ad3d59bd9653f200f220920489ca2b5937696c318360405161194291906125de565b60405180910390a3505050565b61195a848484611497565b61196684848484611de8565b6119a5576040517f08c379a000000000000000000000000000000000000000000000000000000000815260040161199c90613772565b60405180910390fd5b50505050565b60008073ffffffffffffffffffffffffffffffffffffffff166002600084815260200190815260200160002060009054906101000a900473ffffffffffffffffffffffffffffffffffffffff1673ffffffffffffffffffffffffffffffffffffffff1614159050919050565b6060600b8054611a2690612c06565b80601f0160208091040260200160405190810160405280929190818152602001828054611a5290612c06565b8015611a9f5780601f10611a7457610100808354040283529160200191611a9f565b820191906000526020600020905b815481529060010190602001808311611a8257829003601f168201915b5050505050905090565b60606000821415611af1576040518060400160405280600181526020017f30000000000000000000000000000000000000000000000000000000000000008152509050611c05565b600082905060005b60008214611b23578080611b0c90613262565b915050600a82611b1c91906137c1565b9150611af9565b60008167ffffffffffffffff811115611b3f57611b3e612866565b5b6040519080825280601f01601f191660200182016040528015611b715781602001600182028036833780820191505090505b5090505b60008514611bfe57600182611b8a9190613660565b9150600a85611b9991906137f2565b6030611ba591906130b4565b60f81b818381518110611bbb57611bba612f58565b5b60200101907effffffffffffffffffffffffffffffffffffffffffffffffffffffffffffff1916908160001a905350600a85611bf791906137c1565b9450611b75565b8093505050505b919050565b60007f01ffc9a7000000000000000000000000000000000000000000000000000000007bffffffffffffffffffffffffffffffffffffffffffffffffffffffff1916827bffffffffffffffffffffffffffffffffffffffffffffffffffffffff1916149050919050565b611c7f838383611f7f565b600073ffffffffffffffffffffffffffffffffffffffff168373ffffffffffffffffffffffffffffffffffffffff161415611cc257611cbd81611f84565b611d01565b8173ffffffffffffffffffffffffffffffffffffffff168373ffffffffffffffffffffffffffffffffffffffff1614611d0057611cff8382611fcd565b5b5b600073ffffffffffffffffffffffffffffffffffffffff168273ffffffffffffffffffffffffffffffffffffffff161415611d4457611d3f8161213a565b611d83565b8273ffffffffffffffffffffffffffffffffffffffff168273ffffffffffffffffffffffffffffffffffffffff1614611d8257611d81828261220b565b5b5b505050565b505050565b611d97838361228a565b611da46000848484611de8565b611de3576040517f08c379a0000000000000000000000000000000000000000000000000000000008152600401611dda90613772565b60405180910390fd5b505050565b6000611e098473ffffffffffffffffffffffffffffffffffffffff16612464565b15611f72578373ffffffffffffffffffffffffffffffffffffffff1663150b7a02611e326112c3565b8786866040518563ffffffff1660e01b8152600401611e549493929190613878565b602060405180830381600087803b158015611e6e57600080fd5b505af1925050508015611e9f57506040513d601f19601f82011682018060405250810190611e9c91906138d9565b60015b611f22573d8060008114611ecf576040519150601f19603f3d011682016040523d82523d6000602084013e611ed4565b606091505b50600081511415611f1a576040517f08c379a0000000000000000000000000000000000000000000000000000000008152600401611f1190613772565b60405180910390fd5b805181602001fd5b63150b7a0260e01b7bffffffffffffffffffffffffffffffffffffffffffffffffffffffff1916817bffffffffffffffffffffffffffffffffffffffffffffffffffffffff191614915050611f77565b600190505b949350505050565b505050565b6008805490506009600083815260200190815260200160002081905550600881908060018154018082558091505060019003906000526020600020016000909190919091505550565b60006001611fda84610c81565b611fe49190613660565b90506000600760008481526020019081526020016000205490508181146120c9576000600660008673ffffffffffffffffffffffffffffffffffffffff1673ffffffffffffffffffffffffffffffffffffffff168152602001908152602001600020600084815260200190815260200160002054905080600660008773ffffffffffffffffffffffffffffffffffffffff1673ffffffffffffffffffffffffffffffffffffffff168152602001908152602001600020600084815260200190815260200160002081905550816007600083815260200190815260200160002081905550505b6007600084815260200190815260200160002060009055600660008573ffffffffffffffffffffffffffffffffffffffff1673ffffffffffffffffffffffffffffffffffffffff16815260200190815260200160002060008381526020019081526020016000206000905550505050565b6000600160088054905061214e9190613660565b905060006009600084815260200190815260200160002054905060006008838154811061217e5761217d612f58565b5b9060005260206000200154905080600883815481106121a05761219f612f58565b5b9060005260206000200181905550816009600083815260200190815260200160002081905550600960008581526020019081526020016000206000905560088054806121ef576121ee613906565b5b6001900381819060005260206000200160009055905550505050565b600061221683610c81565b905081600660008573ffffffffffffffffffffffffffffffffffffffff1673ffffffffffffffffffffffffffffffffffffffff168152602001908152602001600020600083815260200190815260200160002081905550806007600084815260200190815260200160002081905550505050565b600073ffffffffffffffffffffffffffffffffffffffff168273ffffffffffffffffffffffffffffffffffffffff1614156122fa576040517f08c379a00000000000000000000000000000000000000000000000000000000081526004016122f190613981565b60405180910390fd5b612303816119ab565b15612343576040517f08c379a000000000000000000000000000000000000000000000000000000000815260040161233a906139ed565b60405180910390fd5b61234f60008383611c74565b6001600360008473ffffffffffffffffffffffffffffffffffffffff1673ffffffffffffffffffffffffffffffffffffffff168152602001908152602001600020600082825461239f91906130b4565b92505081905550816002600083815260200190815260200160002060006101000a81548173ffffffffffffffffffffffffffffffffffffffff021916908373ffffffffffffffffffffffffffffffffffffffff160217905550808273ffffffffffffffffffffffffffffffffffffffff16600073ffffffffffffffffffffffffffffffffffffffff167fddf252ad1be2c89b69c2b068fc378daa952ba7f163c4a11628f55a4df523b3ef60405160405180910390a461246060008383611d88565b5050565b6000808273ffffffffffffffffffffffffffffffffffffffff163b119050919050565b82805461249390612c06565b90600052602060002090601f0160209004810192826124b557600085556124fc565b82601f106124ce57805160ff19168380011785556124fc565b828001600101855582156124fc579182015b828111156124fb5782518255916020019190600101906124e0565b5b509050612509919061250d565b5090565b5b8082111561252657600081600090555060010161250e565b5090565b6000604051905090565b600080fd5b600080fd5b60007fffffffff0000000000000000000000000000000000000000000000000000000082169050919050565b6125738161253e565b811461257e57600080fd5b50565b6000813590506125908161256a565b92915050565b6000602082840312156125ac576125ab612534565b5b60006125ba84828501612581565b91505092915050565b60008115159050919050565b6125d8816125c3565b82525050565b60006020820190506125f360008301846125cf565b92915050565b600081519050919050565b600082825260208201905092915050565b60005b83811015612633578082015181840152602081019050612618565b83811115612642576000848401525b50505050565b6000601f19601f8301169050919050565b6000612664826125f9565b61266e8185612604565b935061267e818560208601612615565b61268781612648565b840191505092915050565b600060208201905081810360008301526126ac8184612659565b905092915050565b6000819050919050565b6126c7816126b4565b81146126d257600080fd5b50565b6000813590506126e4816126be565b92915050565b600060208284031215612700576126ff612534565b5b600061270e848285016126d5565b91505092915050565b600073ffffffffffffffffffffffffffffffffffffffff82169050919050565b600061274282612717565b9050919050565b61275281612737565b82525050565b600060208201905061276d6000830184612749565b92915050565b61277c81612737565b811461278757600080fd5b50565b60008135905061279981612773565b92915050565b600080604083850312156127b6576127b5612534565b5b60006127c48582860161278a565b92505060206127d5858286016126d5565b9150509250929050565b6127e8816126b4565b82525050565b600060208201905061280360008301846127df565b92915050565b60008060006060848603121561282257612821612534565b5b60006128308682870161278a565b93505060206128418682870161278a565b9250506040612852868287016126d5565b9150509250925092565b600080fd5b600080fd5b7f4e487b7100000000000000000000000000000000000000000000000000000000600052604160045260246000fd5b61289e82612648565b810181811067ffffffffffffffff821117156128bd576128bc612866565b5b80604052505050565b60006128d061252a565b90506128dc8282612895565b919050565b600067ffffffffffffffff8211156128fc576128fb612866565b5b61290582612648565b9050602081019050919050565b82818337600083830152505050565b600061293461292f846128e1565b6128c6565b9050828152602081018484840111156129505761294f612861565b5b61295b848285612912565b509392505050565b600082601f8301126129785761297761285c565b5b8135612988848260208601612921565b91505092915050565b6000602082840312156129a7576129a6612534565b5b600082013567ffffffffffffffff8111156129c5576129c4612539565b5b6129d184828501612963565b91505092915050565b6000602082840312156129f0576129ef612534565b5b60006129fe8482850161278a565b91505092915050565b612a10816125c3565b8114612a1b57600080fd5b50565b600081359050612a2d81612a07565b92915050565b60008060408385031215612a4a57612a49612534565b5b6000612a588582860161278a565b9250506020612a6985828601612a1e565b9150509250929050565b600067ffffffffffffffff821115612a8e57612a8d612866565b5b612a9782612648565b9050602081019050919050565b6000612ab7612ab284612a73565b6128c6565b905082815260208101848484011115612ad357612ad2612861565b5b612ade848285612912565b509392505050565b600082601f830112612afb57612afa61285c565b5b8135612b0b848260208601612aa4565b91505092915050565b60008060008060808587031215612b2e57612b2d612534565b5b6000612b3c8782880161278a565b9450506020612b4d8782880161278a565b9350506040612b5e878288016126d5565b925050606085013567ffffffffffffffff811115612b7f57612b7e612539565b5b612b8b87828801612ae6565b91505092959194509250565b60008060408385031215612bae57612bad612534565b5b6000612bbc8582860161278a565b9250506020612bcd8582860161278a565b9150509250929050565b7f4e487b7100000000000000000000000000000000000000000000000000000000600052602260045260246000fd5b60006002820490506001821680612c1e57607f821691505b60208210811415612c3257612c31612bd7565b5b50919050565b7f4552433732313a20617070726f76616c20746f2063757272656e74206f776e6560008201527f7200000000000000000000000000000000000000000000000000000000000000602082015250565b6000612c94602183612604565b9150612c9f82612c38565b604082019050919050565b60006020820190508181036000830152612cc381612c87565b9050919050565b7f4552433732313a20617070726f76652063616c6c6572206973206e6f7420746f60008201527f6b656e206f776e6572206e6f7220617070726f76656420666f7220616c6c0000602082015250565b6000612d26603e83612604565b9150612d3182612cca565b604082019050919050565b60006020820190508181036000830152612d5581612d19565b9050919050565b7f4552433732313a2063616c6c6572206973206e6f7420746f6b656e206f776e6560008201527f72206e6f7220617070726f766564000000000000000000000000000000000000602082015250565b6000612db8602e83612604565b9150612dc382612d5c565b604082019050919050565b60006020820190508181036000830152612de781612dab565b9050919050565b7f455243373231456e756d657261626c653a206f776e657220696e646578206f7560008201527f74206f6620626f756e6473000000000000000000000000000000000000000000602082015250565b6000612e4a602b83612604565b9150612e5582612dee565b604082019050919050565b60006020820190508181036000830152612e7981612e3d565b9050919050565b600081905092915050565b50565b6000612e9b600083612e80565b9150612ea682612e8b565b600082019050919050565b6000612ebc82612e8e565b9150819050919050565b7f455243373231456e756d657261626c653a20676c6f62616c20696e646578206f60008201527f7574206f6620626f756e64730000000000000000000000000000000000000000602082015250565b6000612f22602c83612604565b9150612f2d82612ec6565b604082019050919050565b60006020820190508181036000830152612f5181612f15565b9050919050565b7f4e487b7100000000000000000000000000000000000000000000000000000000600052603260045260246000fd5b7f4552433732313a20696e76616c696420746f6b656e2049440000000000000000600082015250565b6000612fbd601883612604565b9150612fc882612f87565b602082019050919050565b60006020820190508181036000830152612fec81612fb0565b9050919050565b7f4552433732313a2061646472657373207a65726f206973206e6f74206120766160008201527f6c6964206f776e65720000000000000000000000000000000000000000000000602082015250565b600061304f602983612604565b915061305a82612ff3565b604082019050919050565b6000602082019050818103600083015261307e81613042565b9050919050565b7f4e487b7100000000000000000000000000000000000000000000000000000000600052601160045260246000fd5b60006130bf826126b4565b91506130ca836126b4565b9250827fffffffffffffffffffffffffffffffffffffffffffffffffffffffffffffffff038211156130ff576130fe613085565b5b828201905092915050565b7f45766572797468696e6773206173206265656e206d696e7465642120536f727260008201527f7900000000000000000000000000000000000000000000000000000000000000602082015250565b6000613166602183612604565b91506131718261310a565b604082019050919050565b6000602082019050818103600083015261319581613159565b9050919050565b60006131a7826126b4565b91506131b2836126b4565b9250817fffffffffffffffffffffffffffffffffffffffffffffffffffffffffffffffff04831182151516156131eb576131ea613085565b5b828202905092915050565b7f596f75206e65656420746f207370656e64206d6f7265206d6f6e657900000000600082015250565b600061322c601c83612604565b9150613237826131f6565b602082019050919050565b6000602082019050818103600083015261325b8161321f565b9050919050565b600061326d826126b4565b91507fffffffffffffffffffffffffffffffffffffffffffffffffffffffffffffffff8214156132a05761329f613085565b5b600182019050919050565b7f4552433732314d657461646174613a2055524920717565727920666f72206e6f60008201527f6e6578697374656e7420746f6b656e0000000000000000000000000000000000602082015250565b6000613307602f83612604565b9150613312826132ab565b604082019050919050565b60006020820190508181036000830152613336816132fa565b9050919050565b600081905092915050565b6000613353826125f9565b61335d818561333d565b935061336d818560208601612615565b80840191505092915050565b60008190508160005260206000209050919050565b6000815461339b81612c06565b6133a5818661333d565b945060018216600081146133c057600181146133d157613404565b60ff19831686528186019350613404565b6133da85613379565b60005b838110156133fc578154818901526001820191506020810190506133dd565b838801955050505b50505092915050565b60006134198286613348565b91506134258285613348565b9150613431828461338e565b9150819050949350505050565b7f4f776e61626c653a206e6577206f776e657220697320746865207a65726f206160008201527f6464726573730000000000000000000000000000000000000000000000000000602082015250565b600061349a602683612604565b91506134a58261343e565b604082019050919050565b600060208201905081810360008301526134c98161348d565b9050919050565b7f4f776e61626c653a2063616c6c6572206973206e6f7420746865206f776e6572600082015250565b6000613506602083612604565b9150613511826134d0565b602082019050919050565b60006020820190508181036000830152613535816134f9565b9050919050565b7f4552433732313a207472616e736665722066726f6d20696e636f72726563742060008201527f6f776e6572000000000000000000000000000000000000000000000000000000602082015250565b6000613598602583612604565b91506135a38261353c565b604082019050919050565b600060208201905081810360008301526135c78161358b565b9050919050565b7f4552433732313a207472616e7366657220746f20746865207a65726f2061646460008201527f7265737300000000000000000000000000000000000000000000000000000000602082015250565b600061362a602483612604565b9150613635826135ce565b604082019050919050565b600060208201905081810360008301526136598161361d565b9050919050565b600061366b826126b4565b9150613676836126b4565b92508282101561368957613688613085565b5b828203905092915050565b7f4552433732313a20617070726f766520746f2063616c6c657200000000000000600082015250565b60006136ca601983612604565b91506136d582613694565b602082019050919050565b600060208201905081810360008301526136f9816136bd565b9050919050565b7f4552433732313a207472616e7366657220746f206e6f6e20455243373231526560008201527f63656976657220696d706c656d656e7465720000000000000000000000000000602082015250565b600061375c603283612604565b915061376782613700565b604082019050919050565b6000602082019050818103600083015261378b8161374f565b9050919050565b7f4e487b7100000000000000000000000000000000000000000000000000000000600052601260045260246000fd5b60006137cc826126b4565b91506137d7836126b4565b9250826137e7576137e6613792565b5b828204905092915050565b60006137fd826126b4565b9150613808836126b4565b92508261381857613817613792565b5b828206905092915050565b600081519050919050565b600082825260208201905092915050565b600061384a82613823565b613854818561382e565b9350613864818560208601612615565b61386d81612648565b840191505092915050565b600060808201905061388d6000830187612749565b61389a6020830186612749565b6138a760408301856127df565b81810360608301526138b9818461383f565b905095945050505050565b6000815190506138d38161256a565b92915050565b6000602082840312156138ef576138ee612534565b5b60006138fd848285016138c4565b91505092915050565b7f4e487b7100000000000000000000000000000000000000000000000000000000600052603160045260246000fd5b7f4552433732313a206d696e7420746f20746865207a65726f2061646472657373600082015250565b600061396b602083612604565b915061397682613935565b602082019050919050565b6000602082019050818103600083015261399a8161395e565b9050919050565b7f4552433732313a20746f6b656e20616c7265616479206d696e74656400000000600082015250565b60006139d7601c83612604565b91506139e2826139a1565b602082019050919050565b60006020820190508181036000830152613a06816139ca565b905091905056fea26469706673582212207c62f98993872fca6f7b815f10620097d17da8ef18220a32e9a642698f87a5c364736f6c63430008090033",
  "devdoc": {
    "author": "Sisco999",
    "kind": "dev",
    "methods": {
      "approve(address,uint256)": {
        "details": "See {IERC721-approve}."
      },
      "balanceOf(address)": {
        "details": "See {IERC721-balanceOf}."
      },
      "getApproved(uint256)": {
        "details": "See {IERC721-getApproved}."
      },
      "isApprovedForAll(address,address)": {
        "details": "See {IERC721-isApprovedForAll}."
      },
      "name()": {
        "details": "See {IERC721Metadata-name}."
      },
      "owner()": {
        "details": "Returns the address of the current owner."
      },
      "ownerOf(uint256)": {
        "details": "See {IERC721-ownerOf}."
      },
      "renounceOwnership()": {
        "details": "Leaves the contract without owner. It will not be possible to call `onlyOwner` functions anymore. Can only be called by the current owner. NOTE: Renouncing ownership will leave the contract without an owner, thereby removing any functionality that is only available to the owner."
      },
      "safeTransferFrom(address,address,uint256)": {
        "details": "See {IERC721-safeTransferFrom}."
      },
      "safeTransferFrom(address,address,uint256,bytes)": {
        "details": "See {IERC721-safeTransferFrom}."
      },
      "setApprovalForAll(address,bool)": {
        "details": "See {IERC721-setApprovalForAll}."
      },
      "supportsInterface(bytes4)": {
        "details": "See {IERC165-supportsInterface}."
      },
      "symbol()": {
        "details": "See {IERC721Metadata-symbol}."
      },
      "tokenByIndex(uint256)": {
        "details": "See {IERC721Enumerable-tokenByIndex}."
      },
      "tokenOfOwnerByIndex(address,uint256)": {
        "details": "See {IERC721Enumerable-tokenOfOwnerByIndex}."
      },
      "tokenURI(uint256)": {
        "details": "See {IERC721Metadata-tokenURI}."
      },
      "totalSupply()": {
        "details": "See {IERC721Enumerable-totalSupply}."
      },
      "transferFrom(address,address,uint256)": {
        "details": "See {IERC721-transferFrom}."
      },
      "transferOwnership(address)": {
        "details": "Transfers ownership of the contract to a new account (`newOwner`). Can only be called by the current owner."
      }
    },
    "title": "A NFT Colection Minting Contract",
    "version": 1
  },
  "userdoc": {
    "kind": "user",
    "methods": {},
    "notice": "This contract is to make a NFT minting website",
    "version": 1
  },
  "storageLayout": {
    "storage": [
      {
        "astId": 138,
        "contract": "contracts/MintingDapp.sol:MintingDapp",
        "label": "_name",
        "offset": 0,
        "slot": "0",
        "type": "t_string_storage"
      },
      {
        "astId": 140,
        "contract": "contracts/MintingDapp.sol:MintingDapp",
        "label": "_symbol",
        "offset": 0,
        "slot": "1",
        "type": "t_string_storage"
      },
      {
        "astId": 144,
        "contract": "contracts/MintingDapp.sol:MintingDapp",
        "label": "_owners",
        "offset": 0,
        "slot": "2",
        "type": "t_mapping(t_uint256,t_address)"
      },
      {
        "astId": 148,
        "contract": "contracts/MintingDapp.sol:MintingDapp",
        "label": "_balances",
        "offset": 0,
        "slot": "3",
        "type": "t_mapping(t_address,t_uint256)"
      },
      {
        "astId": 152,
        "contract": "contracts/MintingDapp.sol:MintingDapp",
        "label": "_tokenApprovals",
        "offset": 0,
        "slot": "4",
        "type": "t_mapping(t_uint256,t_address)"
      },
      {
        "astId": 158,
        "contract": "contracts/MintingDapp.sol:MintingDapp",
        "label": "_operatorApprovals",
        "offset": 0,
        "slot": "5",
        "type": "t_mapping(t_address,t_mapping(t_address,t_bool))"
      },
      {
        "astId": 1128,
        "contract": "contracts/MintingDapp.sol:MintingDapp",
        "label": "_ownedTokens",
        "offset": 0,
        "slot": "6",
        "type": "t_mapping(t_address,t_mapping(t_uint256,t_uint256))"
      },
      {
        "astId": 1132,
        "contract": "contracts/MintingDapp.sol:MintingDapp",
        "label": "_ownedTokensIndex",
        "offset": 0,
        "slot": "7",
        "type": "t_mapping(t_uint256,t_uint256)"
      },
      {
        "astId": 1135,
        "contract": "contracts/MintingDapp.sol:MintingDapp",
        "label": "_allTokens",
        "offset": 0,
        "slot": "8",
        "type": "t_array(t_uint256)dyn_storage"
      },
      {
        "astId": 1139,
        "contract": "contracts/MintingDapp.sol:MintingDapp",
        "label": "_allTokensIndex",
        "offset": 0,
        "slot": "9",
        "type": "t_mapping(t_uint256,t_uint256)"
      },
      {
        "astId": 7,
        "contract": "contracts/MintingDapp.sol:MintingDapp",
        "label": "_owner",
        "offset": 0,
        "slot": "10",
        "type": "t_address"
      },
      {
        "astId": 2102,
        "contract": "contracts/MintingDapp.sol:MintingDapp",
        "label": "i_baseURI",
        "offset": 0,
        "slot": "11",
        "type": "t_string_storage"
      },
      {
        "astId": 2105,
        "contract": "contracts/MintingDapp.sol:MintingDapp",
        "label": "i_baseExtension",
        "offset": 0,
        "slot": "12",
        "type": "t_string_storage"
      },
      {
        "astId": 2108,
        "contract": "contracts/MintingDapp.sol:MintingDapp",
        "label": "s_cost",
        "offset": 0,
        "slot": "13",
        "type": "t_uint256"
      },
      {
        "astId": 2111,
        "contract": "contracts/MintingDapp.sol:MintingDapp",
        "label": "i_maxSupply",
        "offset": 0,
        "slot": "14",
        "type": "t_uint256"
      },
      {
        "astId": 2114,
        "contract": "contracts/MintingDapp.sol:MintingDapp",
        "label": "s_maxMintAmount",
        "offset": 0,
        "slot": "15",
        "type": "t_uint256"
      }
    ],
    "types": {
      "t_address": {
        "encoding": "inplace",
        "label": "address",
        "numberOfBytes": "20"
      },
      "t_array(t_uint256)dyn_storage": {
        "base": "t_uint256",
        "encoding": "dynamic_array",
        "label": "uint256[]",
        "numberOfBytes": "32"
      },
      "t_bool": {
        "encoding": "inplace",
        "label": "bool",
        "numberOfBytes": "1"
      },
      "t_mapping(t_address,t_bool)": {
        "encoding": "mapping",
        "key": "t_address",
        "label": "mapping(address => bool)",
        "numberOfBytes": "32",
        "value": "t_bool"
      },
      "t_mapping(t_address,t_mapping(t_address,t_bool))": {
        "encoding": "mapping",
        "key": "t_address",
        "label": "mapping(address => mapping(address => bool))",
        "numberOfBytes": "32",
        "value": "t_mapping(t_address,t_bool)"
      },
      "t_mapping(t_address,t_mapping(t_uint256,t_uint256))": {
        "encoding": "mapping",
        "key": "t_address",
        "label": "mapping(address => mapping(uint256 => uint256))",
        "numberOfBytes": "32",
        "value": "t_mapping(t_uint256,t_uint256)"
      },
      "t_mapping(t_address,t_uint256)": {
        "encoding": "mapping",
        "key": "t_address",
        "label": "mapping(address => uint256)",
        "numberOfBytes": "32",
        "value": "t_uint256"
      },
      "t_mapping(t_uint256,t_address)": {
        "encoding": "mapping",
        "key": "t_uint256",
        "label": "mapping(uint256 => address)",
        "numberOfBytes": "32",
        "value": "t_address"
      },
      "t_mapping(t_uint256,t_uint256)": {
        "encoding": "mapping",
        "key": "t_uint256",
        "label": "mapping(uint256 => uint256)",
        "numberOfBytes": "32",
        "value": "t_uint256"
      },
      "t_string_storage": {
        "encoding": "bytes",
        "label": "string",
        "numberOfBytes": "32"
      },
      "t_uint256": {
        "encoding": "inplace",
        "label": "uint256",
        "numberOfBytes": "32"
      }
    }
  }
}