{
  "address": "0x238aeE2bcaE02124cdC891Da438f43b8ff99C7c7",
  "abi": [
    {
      "inputs": [
        {
          "internalType": "string",
          "name": "_initBaseURI",
          "type": "string"
        }
      ],
      "stateMutability": "nonpayable",
      "type": "constructor"
    },
    {
      "anonymous": false,
      "inputs": [
        {
          "indexed": true,
          "internalType": "address",
          "name": "owner",
          "type": "address"
        },
        {
          "indexed": true,
          "internalType": "address",
          "name": "approved",
          "type": "address"
        },
        {
          "indexed": true,
          "internalType": "uint256",
          "name": "tokenId",
          "type": "uint256"
        }
      ],
      "name": "Approval",
      "type": "event"
    },
    {
      "anonymous": false,
      "inputs": [
        {
          "indexed": true,
          "internalType": "address",
          "name": "owner",
          "type": "address"
        },
        {
          "indexed": true,
          "internalType": "address",
          "name": "operator",
          "type": "address"
        },
        {
          "indexed": false,
          "internalType": "bool",
          "name": "approved",
          "type": "bool"
        }
      ],
      "name": "ApprovalForAll",
      "type": "event"
    },
    {
      "anonymous": false,
      "inputs": [
        {
          "indexed": true,
          "internalType": "address",
          "name": "previousOwner",
          "type": "address"
        },
        {
          "indexed": true,
          "internalType": "address",
          "name": "newOwner",
          "type": "address"
        }
      ],
      "name": "OwnershipTransferred",
      "type": "event"
    },
    {
      "anonymous": false,
      "inputs": [
        {
          "indexed": true,
          "internalType": "address",
          "name": "from",
          "type": "address"
        },
        {
          "indexed": true,
          "internalType": "address",
          "name": "to",
          "type": "address"
        },
        {
          "indexed": true,
          "internalType": "uint256",
          "name": "tokenId",
          "type": "uint256"
        }
      ],
      "name": "Transfer",
      "type": "event"
    },
    {
      "inputs": [
        {
          "internalType": "address",
          "name": "to",
          "type": "address"
        },
        {
          "internalType": "uint256",
          "name": "tokenId",
          "type": "uint256"
        }
      ],
      "name": "approve",
      "outputs": [],
      "stateMutability": "nonpayable",
      "type": "function"
    },
    {
      "inputs": [
        {
          "internalType": "address",
          "name": "owner",
          "type": "address"
        }
      ],
      "name": "balanceOf",
      "outputs": [
        {
          "internalType": "uint256",
          "name": "",
          "type": "uint256"
        }
      ],
      "stateMutability": "view",
      "type": "function"
    },
    {
      "inputs": [],
      "name": "baseURI",
      "outputs": [
        {
          "internalType": "string",
          "name": "",
          "type": "string"
        }
      ],
      "stateMutability": "view",
      "type": "function"
    },
    {
      "inputs": [
        {
          "internalType": "uint256",
          "name": "tokenId",
          "type": "uint256"
        }
      ],
      "name": "getApproved",
      "outputs": [
        {
          "internalType": "address",
          "name": "",
          "type": "address"
        }
      ],
      "stateMutability": "view",
      "type": "function"
    },
    {
      "inputs": [],
      "name": "getContractBalance",
      "outputs": [
        {
          "internalType": "uint256",
          "name": "",
          "type": "uint256"
        }
      ],
      "stateMutability": "view",
      "type": "function"
    },
    {
      "inputs": [
        {
          "internalType": "address",
          "name": "owner",
          "type": "address"
        },
        {
          "internalType": "address",
          "name": "operator",
          "type": "address"
        }
      ],
      "name": "isApprovedForAll",
      "outputs": [
        {
          "internalType": "bool",
          "name": "",
          "type": "bool"
        }
      ],
      "stateMutability": "view",
      "type": "function"
    },
    {
      "inputs": [],
      "name": "maxSupply",
      "outputs": [
        {
          "internalType": "uint256",
          "name": "",
          "type": "uint256"
        }
      ],
      "stateMutability": "view",
      "type": "function"
    },
    {
      "inputs": [
        {
          "internalType": "uint256",
          "name": "_mintAmount",
          "type": "uint256"
        }
      ],
      "name": "mint",
      "outputs": [],
      "stateMutability": "payable",
      "type": "function"
    },
    {
      "inputs": [],
      "name": "name",
      "outputs": [
        {
          "internalType": "string",
          "name": "",
          "type": "string"
        }
      ],
      "stateMutability": "view",
      "type": "function"
    },
    {
      "inputs": [],
      "name": "owner",
      "outputs": [
        {
          "internalType": "address",
          "name": "",
          "type": "address"
        }
      ],
      "stateMutability": "view",
      "type": "function"
    },
    {
      "inputs": [
        {
          "internalType": "uint256",
          "name": "tokenId",
          "type": "uint256"
        }
      ],
      "name": "ownerOf",
      "outputs": [
        {
          "internalType": "address",
          "name": "",
          "type": "address"
        }
      ],
      "stateMutability": "view",
      "type": "function"
    },
    {
      "inputs": [],
      "name": "renounceOwnership",
      "outputs": [],
      "stateMutability": "nonpayable",
      "type": "function"
    },
    {
      "inputs": [],
      "name": "s_cost",
      "outputs": [
        {
          "internalType": "uint256",
          "name": "",
          "type": "uint256"
        }
      ],
      "stateMutability": "view",
      "type": "function"
    },
    {
      "inputs": [],
      "name": "s_maxMintAmount",
      "outputs": [
        {
          "internalType": "uint256",
          "name": "",
          "type": "uint256"
        }
      ],
      "stateMutability": "view",
      "type": "function"
    },
    {
      "inputs": [
        {
          "internalType": "address",
          "name": "from",
          "type": "address"
        },
        {
          "internalType": "address",
          "name": "to",
          "type": "address"
        },
        {
          "internalType": "uint256",
          "name": "tokenId",
          "type": "uint256"
        }
      ],
      "name": "safeTransferFrom",
      "outputs": [],
      "stateMutability": "nonpayable",
      "type": "function"
    },
    {
      "inputs": [
        {
          "internalType": "address",
          "name": "from",
          "type": "address"
        },
        {
          "internalType": "address",
          "name": "to",
          "type": "address"
        },
        {
          "internalType": "uint256",
          "name": "tokenId",
          "type": "uint256"
        },
        {
          "internalType": "bytes",
          "name": "data",
          "type": "bytes"
        }
      ],
      "name": "safeTransferFrom",
      "outputs": [],
      "stateMutability": "nonpayable",
      "type": "function"
    },
    {
      "inputs": [
        {
          "internalType": "address",
          "name": "operator",
          "type": "address"
        },
        {
          "internalType": "bool",
          "name": "approved",
          "type": "bool"
        }
      ],
      "name": "setApprovalForAll",
      "outputs": [],
      "stateMutability": "nonpayable",
      "type": "function"
    },
    {
      "inputs": [
        {
          "internalType": "string",
          "name": "_newBaseURI",
          "type": "string"
        }
      ],
      "name": "setBaseURI",
      "outputs": [],
      "stateMutability": "nonpayable",
      "type": "function"
    },
    {
      "inputs": [
        {
          "internalType": "uint256",
          "name": "_newCost",
          "type": "uint256"
        }
      ],
      "name": "setCost",
      "outputs": [],
      "stateMutability": "nonpayable",
      "type": "function"
    },
    {
      "inputs": [
        {
          "internalType": "uint256",
          "name": "_newmaxMintAmount",
          "type": "uint256"
        }
      ],
      "name": "setmaxMintAmount",
      "outputs": [],
      "stateMutability": "nonpayable",
      "type": "function"
    },
    {
      "inputs": [
        {
          "internalType": "uint256",
          "name": "_newmaxSupply",
          "type": "uint256"
        }
      ],
      "name": "setmaxSupply",
      "outputs": [],
      "stateMutability": "nonpayable",
      "type": "function"
    },
    {
      "inputs": [
        {
          "internalType": "bytes4",
          "name": "interfaceId",
          "type": "bytes4"
        }
      ],
      "name": "supportsInterface",
      "outputs": [
        {
          "internalType": "bool",
          "name": "",
          "type": "bool"
        }
      ],
      "stateMutability": "view",
      "type": "function"
    },
    {
      "inputs": [],
      "name": "symbol",
      "outputs": [
        {
          "internalType": "string",
          "name": "",
          "type": "string"
        }
      ],
      "stateMutability": "view",
      "type": "function"
    },
    {
      "inputs": [
        {
          "internalType": "uint256",
          "name": "index",
          "type": "uint256"
        }
      ],
      "name": "tokenByIndex",
      "outputs": [
        {
          "internalType": "uint256",
          "name": "",
          "type": "uint256"
        }
      ],
      "stateMutability": "view",
      "type": "function"
    },
    {
      "inputs": [
        {
          "internalType": "address",
          "name": "owner",
          "type": "address"
        },
        {
          "internalType": "uint256",
          "name": "index",
          "type": "uint256"
        }
      ],
      "name": "tokenOfOwnerByIndex",
      "outputs": [
        {
          "internalType": "uint256",
          "name": "",
          "type": "uint256"
        }
      ],
      "stateMutability": "view",
      "type": "function"
    },
    {
      "inputs": [
        {
          "internalType": "uint256",
          "name": "tokenId",
          "type": "uint256"
        }
      ],
      "name": "tokenURI",
      "outputs": [
        {
          "internalType": "string",
          "name": "",
          "type": "string"
        }
      ],
      "stateMutability": "view",
      "type": "function"
    },
    {
      "inputs": [],
      "name": "totalSupply",
      "outputs": [
        {
          "internalType": "uint256",
          "name": "",
          "type": "uint256"
        }
      ],
      "stateMutability": "view",
      "type": "function"
    },
    {
      "inputs": [
        {
          "internalType": "address",
          "name": "from",
          "type": "address"
        },
        {
          "internalType": "address",
          "name": "to",
          "type": "address"
        },
        {
          "internalType": "uint256",
          "name": "tokenId",
          "type": "uint256"
        }
      ],
      "name": "transferFrom",
      "outputs": [],
      "stateMutability": "nonpayable",
      "type": "function"
    },
    {
      "inputs": [
        {
          "internalType": "address",
          "name": "newOwner",
          "type": "address"
        }
      ],
      "name": "transferOwnership",
      "outputs": [],
      "stateMutability": "nonpayable",
      "type": "function"
    },
    {
      "inputs": [],
      "name": "withdraw",
      "outputs": [],
      "stateMutability": "payable",
      "type": "function"
    }
  ],
  "transactionHash": "0x95b2e27ace4e0c56a5967a3cf2af79ced56c8fe0908260bec2866341dd0be77d",
  "args": [
    "ipfs://QmYkjcmHRdEHaVtvZNULCLt9VQBAGF4ESFHHxBEeEgLz1t/"
  ],
  "numDeployments": 21,
  "solcInputHash": "a98b2386a31b722a9961fa0bb133e607",
  "bytecode": "0x60806040526040518060400160405280600581526020017f2e6a736f6e000000000000000000000000000000000000000000000000000000815250600c90805190602001906200005192919062000321565b506005600d5560de600e5560de600f553480156200006e57600080fd5b50604051620041ba380380620041ba83398181016040528101906200009491906200056e565b6040518060400160405280600b81526020017f4e46545f3258526f626f740000000000000000000000000000000000000000008152506040518060400160405280600381526020017f325852000000000000000000000000000000000000000000000000000000000081525081600090805190602001906200011892919062000321565b5080600190805190602001906200013192919062000321565b50505062000154620001486200016c60201b60201c565b6200017460201b60201c565b62000165816200023a60201b60201c565b50620006a7565b600033905090565b6000600a60009054906101000a900473ffffffffffffffffffffffffffffffffffffffff16905081600a60006101000a81548173ffffffffffffffffffffffffffffffffffffffff021916908373ffffffffffffffffffffffffffffffffffffffff1602179055508173ffffffffffffffffffffffffffffffffffffffff168173ffffffffffffffffffffffffffffffffffffffff167f8be0079c531659141344cd1fd0a4f28419497f9722a3daafe3b4186f6b6457e060405160405180910390a35050565b6200024a6200026660201b60201c565b80600b90805190602001906200026292919062000321565b5050565b620002766200016c60201b60201c565b73ffffffffffffffffffffffffffffffffffffffff166200029c620002f760201b60201c565b73ffffffffffffffffffffffffffffffffffffffff1614620002f5576040517f08c379a0000000000000000000000000000000000000000000000000000000008152600401620002ec9062000620565b60405180910390fd5b565b6000600a60009054906101000a900473ffffffffffffffffffffffffffffffffffffffff16905090565b8280546200032f9062000671565b90600052602060002090601f0160209004810192826200035357600085556200039f565b82601f106200036e57805160ff19168380011785556200039f565b828001600101855582156200039f579182015b828111156200039e57825182559160200191906001019062000381565b5b509050620003ae9190620003b2565b5090565b5b80821115620003cd576000816000905550600101620003b3565b5090565b6000604051905090565b600080fd5b600080fd5b600080fd5b600080fd5b6000601f19601f8301169050919050565b7f4e487b7100000000000000000000000000000000000000000000000000000000600052604160045260246000fd5b6200043a82620003ef565b810181811067ffffffffffffffff821117156200045c576200045b62000400565b5b80604052505050565b600062000471620003d1565b90506200047f82826200042f565b919050565b600067ffffffffffffffff821115620004a257620004a162000400565b5b620004ad82620003ef565b9050602081019050919050565b60005b83811015620004da578082015181840152602081019050620004bd565b83811115620004ea576000848401525b50505050565b600062000507620005018462000484565b62000465565b905082815260208101848484011115620005265762000525620003ea565b5b62000533848285620004ba565b509392505050565b600082601f830112620005535762000552620003e5565b5b815162000565848260208601620004f0565b91505092915050565b600060208284031215620005875762000586620003db565b5b600082015167ffffffffffffffff811115620005a857620005a7620003e0565b5b620005b6848285016200053b565b91505092915050565b600082825260208201905092915050565b7f4f776e61626c653a2063616c6c6572206973206e6f7420746865206f776e6572600082015250565b600062000608602083620005bf565b91506200061582620005d0565b602082019050919050565b600060208201905081810360008301526200063b81620005f9565b9050919050565b7f4e487b7100000000000000000000000000000000000000000000000000000000600052602260045260246000fd5b600060028204905060018216806200068a57607f821691505b60208210811415620006a157620006a062000642565b5b50919050565b613b0380620006b76000396000f3fe6080604052600436106101cd5760003560e01c80636c0360eb116100f7578063a0712d6811610095578063c87b56dd11610064578063c87b56dd14610646578063d5abeb0114610683578063e985e9c5146106ae578063f2fde38b146106eb576101cd565b8063a0712d68146105ad578063a22cb465146105c9578063af547af0146105f2578063b88d4fde1461061d576101cd565b8063715018a6116100d1578063715018a6146105175780637f00c7a61461052e5780638da5cb5b1461055757806395d89b4114610582576101cd565b80636c0360eb146104845780636f9fb98a146104af57806370a08231146104da576101cd565b80632f745c591161016f5780634b76d9971161013e5780634b76d997146103b65780634f6ccce7146103e157806355f804b31461041e5780636352211e14610447576101cd565b80632f745c591461031d5780633ccfd60b1461035a57806342842e0e1461036457806344a0d68a1461038d576101cd565b8063095ea7b3116101ab578063095ea7b31461027757806318160ddd146102a0578063228025e8146102cb57806323b872dd146102f4576101cd565b806301ffc9a7146101d257806306fdde031461020f578063081812fc1461023a575b600080fd5b3480156101de57600080fd5b506101f960048036038101906101f49190612656565b610714565b604051610206919061269e565b60405180910390f35b34801561021b57600080fd5b5061022461078e565b6040516102319190612752565b60405180910390f35b34801561024657600080fd5b50610261600480360381019061025c91906127aa565b610820565b60405161026e9190612818565b60405180910390f35b34801561028357600080fd5b5061029e6004803603810190610299919061285f565b610866565b005b3480156102ac57600080fd5b506102b561097e565b6040516102c291906128ae565b60405180910390f35b3480156102d757600080fd5b506102f260048036038101906102ed91906127aa565b61098b565b005b34801561030057600080fd5b5061031b600480360381019061031691906128c9565b61099d565b005b34801561032957600080fd5b50610344600480360381019061033f919061285f565b6109fd565b60405161035191906128ae565b60405180910390f35b610362610aa2565b005b34801561037057600080fd5b5061038b600480360381019061038691906128c9565b610b2a565b005b34801561039957600080fd5b506103b460048036038101906103af91906127aa565b610b4a565b005b3480156103c257600080fd5b506103cb610b5c565b6040516103d891906128ae565b60405180910390f35b3480156103ed57600080fd5b50610408600480360381019061040391906127aa565b610b62565b60405161041591906128ae565b60405180910390f35b34801561042a57600080fd5b5061044560048036038101906104409190612a51565b610bd3565b005b34801561045357600080fd5b5061046e600480360381019061046991906127aa565b610bf5565b60405161047b9190612818565b60405180910390f35b34801561049057600080fd5b50610499610ca7565b6040516104a69190612752565b60405180910390f35b3480156104bb57600080fd5b506104c4610d35565b6040516104d191906128ae565b60405180910390f35b3480156104e657600080fd5b5061050160048036038101906104fc9190612a9a565b610d45565b60405161050e91906128ae565b60405180910390f35b34801561052357600080fd5b5061052c610dfd565b005b34801561053a57600080fd5b50610555600480360381019061055091906127aa565b610e11565b005b34801561056357600080fd5b5061056c610e23565b6040516105799190612818565b60405180910390f35b34801561058e57600080fd5b50610597610e4d565b6040516105a49190612752565b60405180910390f35b6105c760048036038101906105c291906127aa565b610edf565b005b3480156105d557600080fd5b506105f060048036038101906105eb9190612af3565b611010565b005b3480156105fe57600080fd5b50610607611026565b60405161061491906128ae565b60405180910390f35b34801561062957600080fd5b50610644600480360381019061063f9190612bd4565b61102c565b005b34801561065257600080fd5b5061066d600480360381019061066891906127aa565b61108e565b60405161067a9190612752565b60405180910390f35b34801561068f57600080fd5b50610698611138565b6040516106a591906128ae565b60405180910390f35b3480156106ba57600080fd5b506106d560048036038101906106d09190612c57565b61113e565b6040516106e2919061269e565b60405180910390f35b3480156106f757600080fd5b50610712600480360381019061070d9190612a9a565b6111d2565b005b60007f780e9d63000000000000000000000000000000000000000000000000000000007bffffffffffffffffffffffffffffffffffffffffffffffffffffffff1916827bffffffffffffffffffffffffffffffffffffffffffffffffffffffff19161480610787575061078682611256565b5b9050919050565b60606000805461079d90612cc6565b80601f01602080910402602001604051908101604052809291908181526020018280546107c990612cc6565b80156108165780601f106107eb57610100808354040283529160200191610816565b820191906000526020600020905b8154815290600101906020018083116107f957829003601f168201915b5050505050905090565b600061082b82611338565b6004600083815260200190815260200160002060009054906101000a900473ffffffffffffffffffffffffffffffffffffffff169050919050565b600061087182610bf5565b90508073ffffffffffffffffffffffffffffffffffffffff168373ffffffffffffffffffffffffffffffffffffffff1614156108e2576040517f08c379a00000000000000000000000000000000000000000000000000000000081526004016108d990612d6a565b60405180910390fd5b8073ffffffffffffffffffffffffffffffffffffffff16610901611383565b73ffffffffffffffffffffffffffffffffffffffff161480610930575061092f8161092a611383565b61113e565b5b61096f576040517f08c379a000000000000000000000000000000000000000000000000000000000815260040161096690612dfc565b60405180910390fd5b610979838361138b565b505050565b6000600880549050905090565b610993611444565b80600e8190555050565b6109ae6109a8611383565b826114c2565b6109ed576040517f08c379a00000000000000000000000000000000000000000000000000000000081526004016109e490612e8e565b60405180910390fd5b6109f8838383611557565b505050565b6000610a0883610d45565b8210610a49576040517f08c379a0000000000000000000000000000000000000000000000000000000008152600401610a4090612f20565b60405180910390fd5b600660008473ffffffffffffffffffffffffffffffffffffffff1673ffffffffffffffffffffffffffffffffffffffff168152602001908152602001600020600083815260200190815260200160002054905092915050565b610aaa611444565b6000610ab4610e23565b73ffffffffffffffffffffffffffffffffffffffff1647604051610ad790612f71565b60006040518083038185875af1925050503d8060008114610b14576040519150601f19603f3d011682016040523d82523d6000602084013e610b19565b606091505b5050905080610b2757600080fd5b50565b610b458383836040518060200160405280600081525061102c565b505050565b610b52611444565b80600d8190555050565b600f5481565b6000610b6c61097e565b8210610bad576040517f08c379a0000000000000000000000000000000000000000000000000000000008152600401610ba490612ff8565b60405180910390fd5b60088281548110610bc157610bc0613018565b5b90600052602060002001549050919050565b610bdb611444565b80600b9080519060200190610bf1929190612547565b5050565b6000806002600084815260200190815260200160002060009054906101000a900473ffffffffffffffffffffffffffffffffffffffff169050600073ffffffffffffffffffffffffffffffffffffffff168173ffffffffffffffffffffffffffffffffffffffff161415610c9e576040517f08c379a0000000000000000000000000000000000000000000000000000000008152600401610c9590613093565b60405180910390fd5b80915050919050565b600b8054610cb490612cc6565b80601f0160208091040260200160405190810160405280929190818152602001828054610ce090612cc6565b8015610d2d5780601f10610d0257610100808354040283529160200191610d2d565b820191906000526020600020905b815481529060010190602001808311610d1057829003601f168201915b505050505081565b6000610d3f611444565b47905090565b60008073ffffffffffffffffffffffffffffffffffffffff168273ffffffffffffffffffffffffffffffffffffffff161415610db6576040517f08c379a0000000000000000000000000000000000000000000000000000000008152600401610dad90613125565b60405180910390fd5b600360008373ffffffffffffffffffffffffffffffffffffffff1673ffffffffffffffffffffffffffffffffffffffff168152602001908152602001600020549050919050565b610e05611444565b610e0f60006117be565b565b610e19611444565b80600f8190555050565b6000600a60009054906101000a900473ffffffffffffffffffffffffffffffffffffffff16905090565b606060018054610e5c90612cc6565b80601f0160208091040260200160405190810160405280929190818152602001828054610e8890612cc6565b8015610ed55780601f10610eaa57610100808354040283529160200191610ed5565b820191906000526020600020905b815481529060010190602001808311610eb857829003601f168201915b5050505050905090565b6000610ee961097e565b9050600f54821115610efa57600080fd5b600e548282610f099190613174565b1115610f4a576040517f08c379a0000000000000000000000000000000000000000000000000000000008152600401610f419061323c565b60405180910390fd5b610f52610e23565b73ffffffffffffffffffffffffffffffffffffffff163373ffffffffffffffffffffffffffffffffffffffff1614610fd55781600d54610f92919061325c565b341015610fd4576040517f08c379a0000000000000000000000000000000000000000000000000000000008152600401610fcb90613302565b60405180910390fd5b5b6000600190505b82811161100b57610ff8338284610ff39190613174565b611884565b808061100390613322565b915050610fdc565b505050565b61102261101b611383565b83836118a2565b5050565b600d5481565b61103d611037611383565b836114c2565b61107c576040517f08c379a000000000000000000000000000000000000000000000000000000000815260040161107390612e8e565b60405180910390fd5b61108884848484611a0f565b50505050565b606061109982611a6b565b6110d8576040517f08c379a00000000000000000000000000000000000000000000000000000000081526004016110cf906133dd565b60405180910390fd5b60006110e2611ad7565b905060008151116111025760405180602001604052806000815250611130565b8061110c84611b69565b600c604051602001611120939291906134cd565b6040516020818303038152906040525b915050919050565b600e5481565b6000600560008473ffffffffffffffffffffffffffffffffffffffff1673ffffffffffffffffffffffffffffffffffffffff16815260200190815260200160002060008373ffffffffffffffffffffffffffffffffffffffff1673ffffffffffffffffffffffffffffffffffffffff16815260200190815260200160002060009054906101000a900460ff16905092915050565b6111da611444565b600073ffffffffffffffffffffffffffffffffffffffff168173ffffffffffffffffffffffffffffffffffffffff16141561124a576040517f08c379a000000000000000000000000000000000000000000000000000000000815260040161124190613570565b60405180910390fd5b611253816117be565b50565b60007f80ac58cd000000000000000000000000000000000000000000000000000000007bffffffffffffffffffffffffffffffffffffffffffffffffffffffff1916827bffffffffffffffffffffffffffffffffffffffffffffffffffffffff1916148061132157507f5b5e139f000000000000000000000000000000000000000000000000000000007bffffffffffffffffffffffffffffffffffffffffffffffffffffffff1916827bffffffffffffffffffffffffffffffffffffffffffffffffffffffff1916145b80611331575061133082611cca565b5b9050919050565b61134181611a6b565b611380576040517f08c379a000000000000000000000000000000000000000000000000000000000815260040161137790613093565b60405180910390fd5b50565b600033905090565b816004600083815260200190815260200160002060006101000a81548173ffffffffffffffffffffffffffffffffffffffff021916908373ffffffffffffffffffffffffffffffffffffffff160217905550808273ffffffffffffffffffffffffffffffffffffffff166113fe83610bf5565b73ffffffffffffffffffffffffffffffffffffffff167f8c5be1e5ebec7d5bd14f71427d1e84f3dd0314c0f7b2291e5b200ac8c7c3b92560405160405180910390a45050565b61144c611383565b73ffffffffffffffffffffffffffffffffffffffff1661146a610e23565b73ffffffffffffffffffffffffffffffffffffffff16146114c0576040517f08c379a00000000000000000000000000000000000000000000000000000000081526004016114b7906135dc565b60405180910390fd5b565b6000806114ce83610bf5565b90508073ffffffffffffffffffffffffffffffffffffffff168473ffffffffffffffffffffffffffffffffffffffff161480611510575061150f818561113e565b5b8061154e57508373ffffffffffffffffffffffffffffffffffffffff1661153684610820565b73ffffffffffffffffffffffffffffffffffffffff16145b91505092915050565b8273ffffffffffffffffffffffffffffffffffffffff1661157782610bf5565b73ffffffffffffffffffffffffffffffffffffffff16146115cd576040517f08c379a00000000000000000000000000000000000000000000000000000000081526004016115c49061366e565b60405180910390fd5b600073ffffffffffffffffffffffffffffffffffffffff168273ffffffffffffffffffffffffffffffffffffffff16141561163d576040517f08c379a000000000000000000000000000000000000000000000000000000000815260040161163490613700565b60405180910390fd5b611648838383611d34565b61165360008261138b565b6001600360008573ffffffffffffffffffffffffffffffffffffffff1673ffffffffffffffffffffffffffffffffffffffff16815260200190815260200160002060008282546116a39190613720565b925050819055506001600360008473ffffffffffffffffffffffffffffffffffffffff1673ffffffffffffffffffffffffffffffffffffffff16815260200190815260200160002060008282546116fa9190613174565b92505081905550816002600083815260200190815260200160002060006101000a81548173ffffffffffffffffffffffffffffffffffffffff021916908373ffffffffffffffffffffffffffffffffffffffff160217905550808273ffffffffffffffffffffffffffffffffffffffff168473ffffffffffffffffffffffffffffffffffffffff167fddf252ad1be2c89b69c2b068fc378daa952ba7f163c4a11628f55a4df523b3ef60405160405180910390a46117b9838383611e48565b505050565b6000600a60009054906101000a900473ffffffffffffffffffffffffffffffffffffffff16905081600a60006101000a81548173ffffffffffffffffffffffffffffffffffffffff021916908373ffffffffffffffffffffffffffffffffffffffff1602179055508173ffffffffffffffffffffffffffffffffffffffff168173ffffffffffffffffffffffffffffffffffffffff167f8be0079c531659141344cd1fd0a4f28419497f9722a3daafe3b4186f6b6457e060405160405180910390a35050565b61189e828260405180602001604052806000815250611e4d565b5050565b8173ffffffffffffffffffffffffffffffffffffffff168373ffffffffffffffffffffffffffffffffffffffff161415611911576040517f08c379a0000000000000000000000000000000000000000000000000000000008152600401611908906137a0565b60405180910390fd5b80600560008573ffffffffffffffffffffffffffffffffffffffff1673ffffffffffffffffffffffffffffffffffffffff16815260200190815260200160002060008473ffffffffffffffffffffffffffffffffffffffff1673ffffffffffffffffffffffffffffffffffffffff16815260200190815260200160002060006101000a81548160ff0219169083151502179055508173ffffffffffffffffffffffffffffffffffffffff168373ffffffffffffffffffffffffffffffffffffffff167f17307eab39ab6107e8899845ad3d59bd9653f200f220920489ca2b5937696c3183604051611a02919061269e565b60405180910390a3505050565b611a1a848484611557565b611a2684848484611ea8565b611a65576040517f08c379a0000000000000000000000000000000000000000000000000000000008152600401611a5c90613832565b60405180910390fd5b50505050565b60008073ffffffffffffffffffffffffffffffffffffffff166002600084815260200190815260200160002060009054906101000a900473ffffffffffffffffffffffffffffffffffffffff1673ffffffffffffffffffffffffffffffffffffffff1614159050919050565b6060600b8054611ae690612cc6565b80601f0160208091040260200160405190810160405280929190818152602001828054611b1290612cc6565b8015611b5f5780601f10611b3457610100808354040283529160200191611b5f565b820191906000526020600020905b815481529060010190602001808311611b4257829003601f168201915b5050505050905090565b60606000821415611bb1576040518060400160405280600181526020017f30000000000000000000000000000000000000000000000000000000000000008152509050611cc5565b600082905060005b60008214611be3578080611bcc90613322565b915050600a82611bdc9190613881565b9150611bb9565b60008167ffffffffffffffff811115611bff57611bfe612926565b5b6040519080825280601f01601f191660200182016040528015611c315781602001600182028036833780820191505090505b5090505b60008514611cbe57600182611c4a9190613720565b9150600a85611c5991906138b2565b6030611c659190613174565b60f81b818381518110611c7b57611c7a613018565b5b60200101907effffffffffffffffffffffffffffffffffffffffffffffffffffffffffffff1916908160001a905350600a85611cb79190613881565b9450611c35565b8093505050505b919050565b60007f01ffc9a7000000000000000000000000000000000000000000000000000000007bffffffffffffffffffffffffffffffffffffffffffffffffffffffff1916827bffffffffffffffffffffffffffffffffffffffffffffffffffffffff1916149050919050565b611d3f83838361203f565b600073ffffffffffffffffffffffffffffffffffffffff168373ffffffffffffffffffffffffffffffffffffffff161415611d8257611d7d81612044565b611dc1565b8173ffffffffffffffffffffffffffffffffffffffff168373ffffffffffffffffffffffffffffffffffffffff1614611dc057611dbf838261208d565b5b5b600073ffffffffffffffffffffffffffffffffffffffff168273ffffffffffffffffffffffffffffffffffffffff161415611e0457611dff816121fa565b611e43565b8273ffffffffffffffffffffffffffffffffffffffff168273ffffffffffffffffffffffffffffffffffffffff1614611e4257611e4182826122cb565b5b5b505050565b505050565b611e57838361234a565b611e646000848484611ea8565b611ea3576040517f08c379a0000000000000000000000000000000000000000000000000000000008152600401611e9a90613832565b60405180910390fd5b505050565b6000611ec98473ffffffffffffffffffffffffffffffffffffffff16612524565b15612032578373ffffffffffffffffffffffffffffffffffffffff1663150b7a02611ef2611383565b8786866040518563ffffffff1660e01b8152600401611f149493929190613938565b602060405180830381600087803b158015611f2e57600080fd5b505af1925050508015611f5f57506040513d601f19601f82011682018060405250810190611f5c9190613999565b60015b611fe2573d8060008114611f8f576040519150601f19603f3d011682016040523d82523d6000602084013e611f94565b606091505b50600081511415611fda576040517f08c379a0000000000000000000000000000000000000000000000000000000008152600401611fd190613832565b60405180910390fd5b805181602001fd5b63150b7a0260e01b7bffffffffffffffffffffffffffffffffffffffffffffffffffffffff1916817bffffffffffffffffffffffffffffffffffffffffffffffffffffffff191614915050612037565b600190505b949350505050565b505050565b6008805490506009600083815260200190815260200160002081905550600881908060018154018082558091505060019003906000526020600020016000909190919091505550565b6000600161209a84610d45565b6120a49190613720565b9050600060076000848152602001908152602001600020549050818114612189576000600660008673ffffffffffffffffffffffffffffffffffffffff1673ffffffffffffffffffffffffffffffffffffffff168152602001908152602001600020600084815260200190815260200160002054905080600660008773ffffffffffffffffffffffffffffffffffffffff1673ffffffffffffffffffffffffffffffffffffffff168152602001908152602001600020600084815260200190815260200160002081905550816007600083815260200190815260200160002081905550505b6007600084815260200190815260200160002060009055600660008573ffffffffffffffffffffffffffffffffffffffff1673ffffffffffffffffffffffffffffffffffffffff16815260200190815260200160002060008381526020019081526020016000206000905550505050565b6000600160088054905061220e9190613720565b905060006009600084815260200190815260200160002054905060006008838154811061223e5761223d613018565b5b9060005260206000200154905080600883815481106122605761225f613018565b5b9060005260206000200181905550816009600083815260200190815260200160002081905550600960008581526020019081526020016000206000905560088054806122af576122ae6139c6565b5b6001900381819060005260206000200160009055905550505050565b60006122d683610d45565b905081600660008573ffffffffffffffffffffffffffffffffffffffff1673ffffffffffffffffffffffffffffffffffffffff168152602001908152602001600020600083815260200190815260200160002081905550806007600084815260200190815260200160002081905550505050565b600073ffffffffffffffffffffffffffffffffffffffff168273ffffffffffffffffffffffffffffffffffffffff1614156123ba576040517f08c379a00000000000000000000000000000000000000000000000000000000081526004016123b190613a41565b60405180910390fd5b6123c381611a6b565b15612403576040517f08c379a00000000000000000000000000000000000000000000000000000000081526004016123fa90613aad565b60405180910390fd5b61240f60008383611d34565b6001600360008473ffffffffffffffffffffffffffffffffffffffff1673ffffffffffffffffffffffffffffffffffffffff168152602001908152602001600020600082825461245f9190613174565b92505081905550816002600083815260200190815260200160002060006101000a81548173ffffffffffffffffffffffffffffffffffffffff021916908373ffffffffffffffffffffffffffffffffffffffff160217905550808273ffffffffffffffffffffffffffffffffffffffff16600073ffffffffffffffffffffffffffffffffffffffff167fddf252ad1be2c89b69c2b068fc378daa952ba7f163c4a11628f55a4df523b3ef60405160405180910390a461252060008383611e48565b5050565b6000808273ffffffffffffffffffffffffffffffffffffffff163b119050919050565b82805461255390612cc6565b90600052602060002090601f01602090048101928261257557600085556125bc565b82601f1061258e57805160ff19168380011785556125bc565b828001600101855582156125bc579182015b828111156125bb5782518255916020019190600101906125a0565b5b5090506125c991906125cd565b5090565b5b808211156125e65760008160009055506001016125ce565b5090565b6000604051905090565b600080fd5b600080fd5b60007fffffffff0000000000000000000000000000000000000000000000000000000082169050919050565b612633816125fe565b811461263e57600080fd5b50565b6000813590506126508161262a565b92915050565b60006020828403121561266c5761266b6125f4565b5b600061267a84828501612641565b91505092915050565b60008115159050919050565b61269881612683565b82525050565b60006020820190506126b3600083018461268f565b92915050565b600081519050919050565b600082825260208201905092915050565b60005b838110156126f35780820151818401526020810190506126d8565b83811115612702576000848401525b50505050565b6000601f19601f8301169050919050565b6000612724826126b9565b61272e81856126c4565b935061273e8185602086016126d5565b61274781612708565b840191505092915050565b6000602082019050818103600083015261276c8184612719565b905092915050565b6000819050919050565b61278781612774565b811461279257600080fd5b50565b6000813590506127a48161277e565b92915050565b6000602082840312156127c0576127bf6125f4565b5b60006127ce84828501612795565b91505092915050565b600073ffffffffffffffffffffffffffffffffffffffff82169050919050565b6000612802826127d7565b9050919050565b612812816127f7565b82525050565b600060208201905061282d6000830184612809565b92915050565b61283c816127f7565b811461284757600080fd5b50565b60008135905061285981612833565b92915050565b60008060408385031215612876576128756125f4565b5b60006128848582860161284a565b925050602061289585828601612795565b9150509250929050565b6128a881612774565b82525050565b60006020820190506128c3600083018461289f565b92915050565b6000806000606084860312156128e2576128e16125f4565b5b60006128f08682870161284a565b93505060206129018682870161284a565b925050604061291286828701612795565b9150509250925092565b600080fd5b600080fd5b7f4e487b7100000000000000000000000000000000000000000000000000000000600052604160045260246000fd5b61295e82612708565b810181811067ffffffffffffffff8211171561297d5761297c612926565b5b80604052505050565b60006129906125ea565b905061299c8282612955565b919050565b600067ffffffffffffffff8211156129bc576129bb612926565b5b6129c582612708565b9050602081019050919050565b82818337600083830152505050565b60006129f46129ef846129a1565b612986565b905082815260208101848484011115612a1057612a0f612921565b5b612a1b8482856129d2565b509392505050565b600082601f830112612a3857612a3761291c565b5b8135612a488482602086016129e1565b91505092915050565b600060208284031215612a6757612a666125f4565b5b600082013567ffffffffffffffff811115612a8557612a846125f9565b5b612a9184828501612a23565b91505092915050565b600060208284031215612ab057612aaf6125f4565b5b6000612abe8482850161284a565b91505092915050565b612ad081612683565b8114612adb57600080fd5b50565b600081359050612aed81612ac7565b92915050565b60008060408385031215612b0a57612b096125f4565b5b6000612b188582860161284a565b9250506020612b2985828601612ade565b9150509250929050565b600067ffffffffffffffff821115612b4e57612b4d612926565b5b612b5782612708565b9050602081019050919050565b6000612b77612b7284612b33565b612986565b905082815260208101848484011115612b9357612b92612921565b5b612b9e8482856129d2565b509392505050565b600082601f830112612bbb57612bba61291c565b5b8135612bcb848260208601612b64565b91505092915050565b60008060008060808587031215612bee57612bed6125f4565b5b6000612bfc8782880161284a565b9450506020612c0d8782880161284a565b9350506040612c1e87828801612795565b925050606085013567ffffffffffffffff811115612c3f57612c3e6125f9565b5b612c4b87828801612ba6565b91505092959194509250565b60008060408385031215612c6e57612c6d6125f4565b5b6000612c7c8582860161284a565b9250506020612c8d8582860161284a565b9150509250929050565b7f4e487b7100000000000000000000000000000000000000000000000000000000600052602260045260246000fd5b60006002820490506001821680612cde57607f821691505b60208210811415612cf257612cf1612c97565b5b50919050565b7f4552433732313a20617070726f76616c20746f2063757272656e74206f776e6560008201527f7200000000000000000000000000000000000000000000000000000000000000602082015250565b6000612d546021836126c4565b9150612d5f82612cf8565b604082019050919050565b60006020820190508181036000830152612d8381612d47565b9050919050565b7f4552433732313a20617070726f76652063616c6c6572206973206e6f7420746f60008201527f6b656e206f776e6572206e6f7220617070726f76656420666f7220616c6c0000602082015250565b6000612de6603e836126c4565b9150612df182612d8a565b604082019050919050565b60006020820190508181036000830152612e1581612dd9565b9050919050565b7f4552433732313a2063616c6c6572206973206e6f7420746f6b656e206f776e6560008201527f72206e6f7220617070726f766564000000000000000000000000000000000000602082015250565b6000612e78602e836126c4565b9150612e8382612e1c565b604082019050919050565b60006020820190508181036000830152612ea781612e6b565b9050919050565b7f455243373231456e756d657261626c653a206f776e657220696e646578206f7560008201527f74206f6620626f756e6473000000000000000000000000000000000000000000602082015250565b6000612f0a602b836126c4565b9150612f1582612eae565b604082019050919050565b60006020820190508181036000830152612f3981612efd565b9050919050565b600081905092915050565b50565b6000612f5b600083612f40565b9150612f6682612f4b565b600082019050919050565b6000612f7c82612f4e565b9150819050919050565b7f455243373231456e756d657261626c653a20676c6f62616c20696e646578206f60008201527f7574206f6620626f756e64730000000000000000000000000000000000000000602082015250565b6000612fe2602c836126c4565b9150612fed82612f86565b604082019050919050565b6000602082019050818103600083015261301181612fd5565b9050919050565b7f4e487b7100000000000000000000000000000000000000000000000000000000600052603260045260246000fd5b7f4552433732313a20696e76616c696420746f6b656e2049440000000000000000600082015250565b600061307d6018836126c4565b915061308882613047565b602082019050919050565b600060208201905081810360008301526130ac81613070565b9050919050565b7f4552433732313a2061646472657373207a65726f206973206e6f74206120766160008201527f6c6964206f776e65720000000000000000000000000000000000000000000000602082015250565b600061310f6029836126c4565b915061311a826130b3565b604082019050919050565b6000602082019050818103600083015261313e81613102565b9050919050565b7f4e487b7100000000000000000000000000000000000000000000000000000000600052601160045260246000fd5b600061317f82612774565b915061318a83612774565b9250827fffffffffffffffffffffffffffffffffffffffffffffffffffffffffffffffff038211156131bf576131be613145565b5b828201905092915050565b7f45766572797468696e6773206173206265656e206d696e7465642120536f727260008201527f7900000000000000000000000000000000000000000000000000000000000000602082015250565b60006132266021836126c4565b9150613231826131ca565b604082019050919050565b6000602082019050818103600083015261325581613219565b9050919050565b600061326782612774565b915061327283612774565b9250817fffffffffffffffffffffffffffffffffffffffffffffffffffffffffffffffff04831182151516156132ab576132aa613145565b5b828202905092915050565b7f596f75206e65656420746f207370656e64206d6f7265206d6f6e657900000000600082015250565b60006132ec601c836126c4565b91506132f7826132b6565b602082019050919050565b6000602082019050818103600083015261331b816132df565b9050919050565b600061332d82612774565b91507fffffffffffffffffffffffffffffffffffffffffffffffffffffffffffffffff8214156133605761335f613145565b5b600182019050919050565b7f4552433732314d657461646174613a2055524920717565727920666f72206e6f60008201527f6e6578697374656e7420746f6b656e0000000000000000000000000000000000602082015250565b60006133c7602f836126c4565b91506133d28261336b565b604082019050919050565b600060208201905081810360008301526133f6816133ba565b9050919050565b600081905092915050565b6000613413826126b9565b61341d81856133fd565b935061342d8185602086016126d5565b80840191505092915050565b60008190508160005260206000209050919050565b6000815461345b81612cc6565b61346581866133fd565b945060018216600081146134805760018114613491576134c4565b60ff198316865281860193506134c4565b61349a85613439565b60005b838110156134bc5781548189015260018201915060208101905061349d565b838801955050505b50505092915050565b60006134d98286613408565b91506134e58285613408565b91506134f1828461344e565b9150819050949350505050565b7f4f776e61626c653a206e6577206f776e657220697320746865207a65726f206160008201527f6464726573730000000000000000000000000000000000000000000000000000602082015250565b600061355a6026836126c4565b9150613565826134fe565b604082019050919050565b600060208201905081810360008301526135898161354d565b9050919050565b7f4f776e61626c653a2063616c6c6572206973206e6f7420746865206f776e6572600082015250565b60006135c66020836126c4565b91506135d182613590565b602082019050919050565b600060208201905081810360008301526135f5816135b9565b9050919050565b7f4552433732313a207472616e736665722066726f6d20696e636f72726563742060008201527f6f776e6572000000000000000000000000000000000000000000000000000000602082015250565b60006136586025836126c4565b9150613663826135fc565b604082019050919050565b600060208201905081810360008301526136878161364b565b9050919050565b7f4552433732313a207472616e7366657220746f20746865207a65726f2061646460008201527f7265737300000000000000000000000000000000000000000000000000000000602082015250565b60006136ea6024836126c4565b91506136f58261368e565b604082019050919050565b60006020820190508181036000830152613719816136dd565b9050919050565b600061372b82612774565b915061373683612774565b92508282101561374957613748613145565b5b828203905092915050565b7f4552433732313a20617070726f766520746f2063616c6c657200000000000000600082015250565b600061378a6019836126c4565b915061379582613754565b602082019050919050565b600060208201905081810360008301526137b98161377d565b9050919050565b7f4552433732313a207472616e7366657220746f206e6f6e20455243373231526560008201527f63656976657220696d706c656d656e7465720000000000000000000000000000602082015250565b600061381c6032836126c4565b9150613827826137c0565b604082019050919050565b6000602082019050818103600083015261384b8161380f565b9050919050565b7f4e487b7100000000000000000000000000000000000000000000000000000000600052601260045260246000fd5b600061388c82612774565b915061389783612774565b9250826138a7576138a6613852565b5b828204905092915050565b60006138bd82612774565b91506138c883612774565b9250826138d8576138d7613852565b5b828206905092915050565b600081519050919050565b600082825260208201905092915050565b600061390a826138e3565b61391481856138ee565b93506139248185602086016126d5565b61392d81612708565b840191505092915050565b600060808201905061394d6000830187612809565b61395a6020830186612809565b613967604083018561289f565b818103606083015261397981846138ff565b905095945050505050565b6000815190506139938161262a565b92915050565b6000602082840312156139af576139ae6125f4565b5b60006139bd84828501613984565b91505092915050565b7f4e487b7100000000000000000000000000000000000000000000000000000000600052603160045260246000fd5b7f4552433732313a206d696e7420746f20746865207a65726f2061646472657373600082015250565b6000613a2b6020836126c4565b9150613a36826139f5565b602082019050919050565b60006020820190508181036000830152613a5a81613a1e565b9050919050565b7f4552433732313a20746f6b656e20616c7265616479206d696e74656400000000600082015250565b6000613a97601c836126c4565b9150613aa282613a61565b602082019050919050565b60006020820190508181036000830152613ac681613a8a565b905091905056fea2646970667358221220c1caa4a7bd3d169e66ed6f46574844d73accab0256a45c4fc8674d4e08674d3464736f6c63430008090033",
  "devdoc": {
    "author": "Sisco999",
    "kind": "dev",
    "methods": {
      "approve(address,uint256)": {
        "details": "See {IERC721-approve}."
      },
      "balanceOf(address)": {
        "details": "See {IERC721-balanceOf}."
      },
      "getApproved(uint256)": {
        "details": "See {IERC721-getApproved}."
      },
      "isApprovedForAll(address,address)": {
        "details": "See {IERC721-isApprovedForAll}."
      },
      "name()": {
        "details": "See {IERC721Metadata-name}."
      },
      "owner()": {
        "details": "Returns the address of the current owner."
      },
      "ownerOf(uint256)": {
        "details": "See {IERC721-ownerOf}."
      },
      "renounceOwnership()": {
        "details": "Leaves the contract without owner. It will not be possible to call `onlyOwner` functions anymore. Can only be called by the current owner. NOTE: Renouncing ownership will leave the contract without an owner, thereby removing any functionality that is only available to the owner."
      },
      "safeTransferFrom(address,address,uint256)": {
        "details": "See {IERC721-safeTransferFrom}."
      },
      "safeTransferFrom(address,address,uint256,bytes)": {
        "details": "See {IERC721-safeTransferFrom}."
      },
      "setApprovalForAll(address,bool)": {
        "details": "See {IERC721-setApprovalForAll}."
      },
      "supportsInterface(bytes4)": {
        "details": "See {IERC165-supportsInterface}."
      },
      "symbol()": {
        "details": "See {IERC721Metadata-symbol}."
      },
      "tokenByIndex(uint256)": {
        "details": "See {IERC721Enumerable-tokenByIndex}."
      },
      "tokenOfOwnerByIndex(address,uint256)": {
        "details": "See {IERC721Enumerable-tokenOfOwnerByIndex}."
      },
      "tokenURI(uint256)": {
        "details": "See {IERC721Metadata-tokenURI}."
      },
      "totalSupply()": {
        "details": "See {IERC721Enumerable-totalSupply}."
      },
      "transferFrom(address,address,uint256)": {
        "details": "See {IERC721-transferFrom}."
      },
      "transferOwnership(address)": {
        "details": "Transfers ownership of the contract to a new account (`newOwner`). Can only be called by the current owner."
      }
    },
    "title": "A NFT Colection Minting Contract",
    "version": 1
  },
  "userdoc": {
    "kind": "user",
    "methods": {},
    "notice": "This contract is to make a NFT minting website",
    "version": 1
  },
  "storageLayout": {
    "storage": [
      {
        "astId": 138,
        "contract": "contracts/MintingDapp.sol:MintingDapp",
        "label": "_name",
        "offset": 0,
        "slot": "0",
        "type": "t_string_storage"
      },
      {
        "astId": 140,
        "contract": "contracts/MintingDapp.sol:MintingDapp",
        "label": "_symbol",
        "offset": 0,
        "slot": "1",
        "type": "t_string_storage"
      },
      {
        "astId": 144,
        "contract": "contracts/MintingDapp.sol:MintingDapp",
        "label": "_owners",
        "offset": 0,
        "slot": "2",
        "type": "t_mapping(t_uint256,t_address)"
      },
      {
        "astId": 148,
        "contract": "contracts/MintingDapp.sol:MintingDapp",
        "label": "_balances",
        "offset": 0,
        "slot": "3",
        "type": "t_mapping(t_address,t_uint256)"
      },
      {
        "astId": 152,
        "contract": "contracts/MintingDapp.sol:MintingDapp",
        "label": "_tokenApprovals",
        "offset": 0,
        "slot": "4",
        "type": "t_mapping(t_uint256,t_address)"
      },
      {
        "astId": 158,
        "contract": "contracts/MintingDapp.sol:MintingDapp",
        "label": "_operatorApprovals",
        "offset": 0,
        "slot": "5",
        "type": "t_mapping(t_address,t_mapping(t_address,t_bool))"
      },
      {
        "astId": 1128,
        "contract": "contracts/MintingDapp.sol:MintingDapp",
        "label": "_ownedTokens",
        "offset": 0,
        "slot": "6",
        "type": "t_mapping(t_address,t_mapping(t_uint256,t_uint256))"
      },
      {
        "astId": 1132,
        "contract": "contracts/MintingDapp.sol:MintingDapp",
        "label": "_ownedTokensIndex",
        "offset": 0,
        "slot": "7",
        "type": "t_mapping(t_uint256,t_uint256)"
      },
      {
        "astId": 1135,
        "contract": "contracts/MintingDapp.sol:MintingDapp",
        "label": "_allTokens",
        "offset": 0,
        "slot": "8",
        "type": "t_array(t_uint256)dyn_storage"
      },
      {
        "astId": 1139,
        "contract": "contracts/MintingDapp.sol:MintingDapp",
        "label": "_allTokensIndex",
        "offset": 0,
        "slot": "9",
        "type": "t_mapping(t_uint256,t_uint256)"
      },
      {
        "astId": 7,
        "contract": "contracts/MintingDapp.sol:MintingDapp",
        "label": "_owner",
        "offset": 0,
        "slot": "10",
        "type": "t_address"
      },
      {
        "astId": 2102,
        "contract": "contracts/MintingDapp.sol:MintingDapp",
        "label": "baseURI",
        "offset": 0,
        "slot": "11",
        "type": "t_string_storage"
      },
      {
        "astId": 2105,
        "contract": "contracts/MintingDapp.sol:MintingDapp",
        "label": "i_baseExtension",
        "offset": 0,
        "slot": "12",
        "type": "t_string_storage"
      },
      {
        "astId": 2108,
        "contract": "contracts/MintingDapp.sol:MintingDapp",
        "label": "s_cost",
        "offset": 0,
        "slot": "13",
        "type": "t_uint256"
      },
      {
        "astId": 2111,
        "contract": "contracts/MintingDapp.sol:MintingDapp",
        "label": "maxSupply",
        "offset": 0,
        "slot": "14",
        "type": "t_uint256"
      },
      {
        "astId": 2114,
        "contract": "contracts/MintingDapp.sol:MintingDapp",
        "label": "s_maxMintAmount",
        "offset": 0,
        "slot": "15",
        "type": "t_uint256"
      }
    ],
    "types": {
      "t_address": {
        "encoding": "inplace",
        "label": "address",
        "numberOfBytes": "20"
      },
      "t_array(t_uint256)dyn_storage": {
        "base": "t_uint256",
        "encoding": "dynamic_array",
        "label": "uint256[]",
        "numberOfBytes": "32"
      },
      "t_bool": {
        "encoding": "inplace",
        "label": "bool",
        "numberOfBytes": "1"
      },
      "t_mapping(t_address,t_bool)": {
        "encoding": "mapping",
        "key": "t_address",
        "label": "mapping(address => bool)",
        "numberOfBytes": "32",
        "value": "t_bool"
      },
      "t_mapping(t_address,t_mapping(t_address,t_bool))": {
        "encoding": "mapping",
        "key": "t_address",
        "label": "mapping(address => mapping(address => bool))",
        "numberOfBytes": "32",
        "value": "t_mapping(t_address,t_bool)"
      },
      "t_mapping(t_address,t_mapping(t_uint256,t_uint256))": {
        "encoding": "mapping",
        "key": "t_address",
        "label": "mapping(address => mapping(uint256 => uint256))",
        "numberOfBytes": "32",
        "value": "t_mapping(t_uint256,t_uint256)"
      },
      "t_mapping(t_address,t_uint256)": {
        "encoding": "mapping",
        "key": "t_address",
        "label": "mapping(address => uint256)",
        "numberOfBytes": "32",
        "value": "t_uint256"
      },
      "t_mapping(t_uint256,t_address)": {
        "encoding": "mapping",
        "key": "t_uint256",
        "label": "mapping(uint256 => address)",
        "numberOfBytes": "32",
        "value": "t_address"
      },
      "t_mapping(t_uint256,t_uint256)": {
        "encoding": "mapping",
        "key": "t_uint256",
        "label": "mapping(uint256 => uint256)",
        "numberOfBytes": "32",
        "value": "t_uint256"
      },
      "t_string_storage": {
        "encoding": "bytes",
        "label": "string",
        "numberOfBytes": "32"
      },
      "t_uint256": {
        "encoding": "inplace",
        "label": "uint256",
        "numberOfBytes": "32"
      }
    }
  }
}