{
     "address": "0xd8852cc493fAf7fDd7d1d09986DD2a9F9D93D7E8",
     "abi": [
          {
               "inputs": [
                    {
                         "internalType": "string",
                         "name": "_initBaseURI",
                         "type": "string"
                    },
                    {
                         "internalType": "string",
                         "name": "_initNotRevealedUri",
                         "type": "string"
                    }
               ],
               "stateMutability": "nonpayable",
               "type": "constructor"
          },
          {
               "anonymous": false,
               "inputs": [
                    {
                         "indexed": true,
                         "internalType": "address",
                         "name": "owner",
                         "type": "address"
                    },
                    {
                         "indexed": true,
                         "internalType": "address",
                         "name": "approved",
                         "type": "address"
                    },
                    {
                         "indexed": true,
                         "internalType": "uint256",
                         "name": "tokenId",
                         "type": "uint256"
                    }
               ],
               "name": "Approval",
               "type": "event"
          },
          {
               "anonymous": false,
               "inputs": [
                    {
                         "indexed": true,
                         "internalType": "address",
                         "name": "owner",
                         "type": "address"
                    },
                    {
                         "indexed": true,
                         "internalType": "address",
                         "name": "operator",
                         "type": "address"
                    },
                    {
                         "indexed": false,
                         "internalType": "bool",
                         "name": "approved",
                         "type": "bool"
                    }
               ],
               "name": "ApprovalForAll",
               "type": "event"
          },
          {
               "anonymous": false,
               "inputs": [
                    {
                         "indexed": true,
                         "internalType": "address",
                         "name": "previousOwner",
                         "type": "address"
                    },
                    {
                         "indexed": true,
                         "internalType": "address",
                         "name": "newOwner",
                         "type": "address"
                    }
               ],
               "name": "OwnershipTransferred",
               "type": "event"
          },
          {
               "anonymous": false,
               "inputs": [
                    {
                         "indexed": true,
                         "internalType": "address",
                         "name": "from",
                         "type": "address"
                    },
                    {
                         "indexed": true,
                         "internalType": "address",
                         "name": "to",
                         "type": "address"
                    },
                    {
                         "indexed": true,
                         "internalType": "uint256",
                         "name": "tokenId",
                         "type": "uint256"
                    }
               ],
               "name": "Transfer",
               "type": "event"
          },
          {
               "inputs": [
                    {
                         "internalType": "address",
                         "name": "to",
                         "type": "address"
                    },
                    {
                         "internalType": "uint256",
                         "name": "tokenId",
                         "type": "uint256"
                    }
               ],
               "name": "approve",
               "outputs": [],
               "stateMutability": "nonpayable",
               "type": "function"
          },
          {
               "inputs": [
                    {
                         "internalType": "address",
                         "name": "owner",
                         "type": "address"
                    }
               ],
               "name": "balanceOf",
               "outputs": [
                    {
                         "internalType": "uint256",
                         "name": "",
                         "type": "uint256"
                    }
               ],
               "stateMutability": "view",
               "type": "function"
          },
          {
               "inputs": [],
               "name": "baseURI",
               "outputs": [
                    {
                         "internalType": "string",
                         "name": "",
                         "type": "string"
                    }
               ],
               "stateMutability": "view",
               "type": "function"
          },
          {
               "inputs": [
                    {
                         "internalType": "uint256",
                         "name": "tokenId",
                         "type": "uint256"
                    }
               ],
               "name": "getApproved",
               "outputs": [
                    {
                         "internalType": "address",
                         "name": "",
                         "type": "address"
                    }
               ],
               "stateMutability": "view",
               "type": "function"
          },
          {
               "inputs": [],
               "name": "getContractBalance",
               "outputs": [
                    {
                         "internalType": "uint256",
                         "name": "",
                         "type": "uint256"
                    }
               ],
               "stateMutability": "view",
               "type": "function"
          },
          {
               "inputs": [
                    {
                         "internalType": "address",
                         "name": "owner",
                         "type": "address"
                    },
                    {
                         "internalType": "address",
                         "name": "operator",
                         "type": "address"
                    }
               ],
               "name": "isApprovedForAll",
               "outputs": [
                    {
                         "internalType": "bool",
                         "name": "",
                         "type": "bool"
                    }
               ],
               "stateMutability": "view",
               "type": "function"
          },
          {
               "inputs": [],
               "name": "maxSupply",
               "outputs": [
                    {
                         "internalType": "uint256",
                         "name": "",
                         "type": "uint256"
                    }
               ],
               "stateMutability": "view",
               "type": "function"
          },
          {
               "inputs": [
                    {
                         "internalType": "uint256",
                         "name": "_mintAmount",
                         "type": "uint256"
                    }
               ],
               "name": "mint",
               "outputs": [],
               "stateMutability": "payable",
               "type": "function"
          },
          {
               "inputs": [],
               "name": "name",
               "outputs": [
                    {
                         "internalType": "string",
                         "name": "",
                         "type": "string"
                    }
               ],
               "stateMutability": "view",
               "type": "function"
          },
          {
               "inputs": [],
               "name": "notRevealedUri",
               "outputs": [
                    {
                         "internalType": "string",
                         "name": "",
                         "type": "string"
                    }
               ],
               "stateMutability": "view",
               "type": "function"
          },
          {
               "inputs": [],
               "name": "owner",
               "outputs": [
                    {
                         "internalType": "address",
                         "name": "",
                         "type": "address"
                    }
               ],
               "stateMutability": "view",
               "type": "function"
          },
          {
               "inputs": [
                    {
                         "internalType": "uint256",
                         "name": "tokenId",
                         "type": "uint256"
                    }
               ],
               "name": "ownerOf",
               "outputs": [
                    {
                         "internalType": "address",
                         "name": "",
                         "type": "address"
                    }
               ],
               "stateMutability": "view",
               "type": "function"
          },
          {
               "inputs": [],
               "name": "renounceOwnership",
               "outputs": [],
               "stateMutability": "nonpayable",
               "type": "function"
          },
          {
               "inputs": [],
               "name": "reveal",
               "outputs": [],
               "stateMutability": "nonpayable",
               "type": "function"
          },
          {
               "inputs": [],
               "name": "revealed",
               "outputs": [
                    {
                         "internalType": "bool",
                         "name": "",
                         "type": "bool"
                    }
               ],
               "stateMutability": "view",
               "type": "function"
          },
          {
               "inputs": [],
               "name": "s_cost",
               "outputs": [
                    {
                         "internalType": "uint256",
                         "name": "",
                         "type": "uint256"
                    }
               ],
               "stateMutability": "view",
               "type": "function"
          },
          {
               "inputs": [],
               "name": "s_maxMintAmount",
               "outputs": [
                    {
                         "internalType": "uint256",
                         "name": "",
                         "type": "uint256"
                    }
               ],
               "stateMutability": "view",
               "type": "function"
          },
          {
               "inputs": [
                    {
                         "internalType": "address",
                         "name": "from",
                         "type": "address"
                    },
                    {
                         "internalType": "address",
                         "name": "to",
                         "type": "address"
                    },
                    {
                         "internalType": "uint256",
                         "name": "tokenId",
                         "type": "uint256"
                    }
               ],
               "name": "safeTransferFrom",
               "outputs": [],
               "stateMutability": "nonpayable",
               "type": "function"
          },
          {
               "inputs": [
                    {
                         "internalType": "address",
                         "name": "from",
                         "type": "address"
                    },
                    {
                         "internalType": "address",
                         "name": "to",
                         "type": "address"
                    },
                    {
                         "internalType": "uint256",
                         "name": "tokenId",
                         "type": "uint256"
                    },
                    {
                         "internalType": "bytes",
                         "name": "data",
                         "type": "bytes"
                    }
               ],
               "name": "safeTransferFrom",
               "outputs": [],
               "stateMutability": "nonpayable",
               "type": "function"
          },
          {
               "inputs": [
                    {
                         "internalType": "address",
                         "name": "operator",
                         "type": "address"
                    },
                    {
                         "internalType": "bool",
                         "name": "approved",
                         "type": "bool"
                    }
               ],
               "name": "setApprovalForAll",
               "outputs": [],
               "stateMutability": "nonpayable",
               "type": "function"
          },
          {
               "inputs": [
                    {
                         "internalType": "string",
                         "name": "_newBaseURI",
                         "type": "string"
                    }
               ],
               "name": "setBaseURI",
               "outputs": [],
               "stateMutability": "nonpayable",
               "type": "function"
          },
          {
               "inputs": [
                    {
                         "internalType": "uint256",
                         "name": "_newCost",
                         "type": "uint256"
                    }
               ],
               "name": "setCost",
               "outputs": [],
               "stateMutability": "nonpayable",
               "type": "function"
          },
          {
               "inputs": [
                    {
                         "internalType": "string",
                         "name": "_notRevealedURI",
                         "type": "string"
                    }
               ],
               "name": "setNotRevealedURI",
               "outputs": [],
               "stateMutability": "nonpayable",
               "type": "function"
          },
          {
               "inputs": [
                    {
                         "internalType": "uint256",
                         "name": "_newmaxMintAmount",
                         "type": "uint256"
                    }
               ],
               "name": "setmaxMintAmount",
               "outputs": [],
               "stateMutability": "nonpayable",
               "type": "function"
          },
          {
               "inputs": [
                    {
                         "internalType": "uint256",
                         "name": "_newmaxSupply",
                         "type": "uint256"
                    }
               ],
               "name": "setmaxSupply",
               "outputs": [],
               "stateMutability": "nonpayable",
               "type": "function"
          },
          {
               "inputs": [
                    {
                         "internalType": "bytes4",
                         "name": "interfaceId",
                         "type": "bytes4"
                    }
               ],
               "name": "supportsInterface",
               "outputs": [
                    {
                         "internalType": "bool",
                         "name": "",
                         "type": "bool"
                    }
               ],
               "stateMutability": "view",
               "type": "function"
          },
          {
               "inputs": [],
               "name": "symbol",
               "outputs": [
                    {
                         "internalType": "string",
                         "name": "",
                         "type": "string"
                    }
               ],
               "stateMutability": "view",
               "type": "function"
          },
          {
               "inputs": [
                    {
                         "internalType": "uint256",
                         "name": "index",
                         "type": "uint256"
                    }
               ],
               "name": "tokenByIndex",
               "outputs": [
                    {
                         "internalType": "uint256",
                         "name": "",
                         "type": "uint256"
                    }
               ],
               "stateMutability": "view",
               "type": "function"
          },
          {
               "inputs": [
                    {
                         "internalType": "address",
                         "name": "owner",
                         "type": "address"
                    },
                    {
                         "internalType": "uint256",
                         "name": "index",
                         "type": "uint256"
                    }
               ],
               "name": "tokenOfOwnerByIndex",
               "outputs": [
                    {
                         "internalType": "uint256",
                         "name": "",
                         "type": "uint256"
                    }
               ],
               "stateMutability": "view",
               "type": "function"
          },
          {
               "inputs": [
                    {
                         "internalType": "uint256",
                         "name": "tokenId",
                         "type": "uint256"
                    }
               ],
               "name": "tokenURI",
               "outputs": [
                    {
                         "internalType": "string",
                         "name": "",
                         "type": "string"
                    }
               ],
               "stateMutability": "view",
               "type": "function"
          },
          {
               "inputs": [],
               "name": "totalSupply",
               "outputs": [
                    {
                         "internalType": "uint256",
                         "name": "",
                         "type": "uint256"
                    }
               ],
               "stateMutability": "view",
               "type": "function"
          },
          {
               "inputs": [
                    {
                         "internalType": "address",
                         "name": "from",
                         "type": "address"
                    },
                    {
                         "internalType": "address",
                         "name": "to",
                         "type": "address"
                    },
                    {
                         "internalType": "uint256",
                         "name": "tokenId",
                         "type": "uint256"
                    }
               ],
               "name": "transferFrom",
               "outputs": [],
               "stateMutability": "nonpayable",
               "type": "function"
          },
          {
               "inputs": [
                    {
                         "internalType": "address",
                         "name": "newOwner",
                         "type": "address"
                    }
               ],
               "name": "transferOwnership",
               "outputs": [],
               "stateMutability": "nonpayable",
               "type": "function"
          },
          {
               "inputs": [],
               "name": "withdraw",
               "outputs": [],
               "stateMutability": "payable",
               "type": "function"
          }
     ],
     "transactionHash": "0x4d62c3b5523188b3831051cc3fea1d16936bd7136d3176a5899722256e230dc0",
     "args": [
          "ipfs://QmYkjcmHRdEHaVtvZNULCLt9VQBAGF4ESFHHxBEeEgLz1t/",
          "ipfs://test/"
     ],
     "numDeployments": 3,
     "solcInputHash": "7b00219bbb404a0e83408d4ac12e136a",
     "bytecode": "0x60806040526040518060400160405280600581526020017f2e6a736f6e000000000000000000000000000000000000000000000000000000815250600c9080519060200190620000519291906200037b565b506005600d556156ce600e556000600f60006101000a81548160ff02191690831515021790555060de6010553480156200008a57600080fd5b50604051620044a1380380620044a18339818101604052810190620000b09190620005c8565b6040518060400160405280600b81526020017f4e46545f3258526f626f740000000000000000000000000000000000000000008152506040518060400160405280600381526020017f32585200000000000000000000000000000000000000000000000000000000008152508160009080519060200190620001349291906200037b565b5080600190805190602001906200014d9291906200037b565b50505062000170620001646200019a60201b60201c565b620001a260201b60201c565b62000181826200026860201b60201c565b62000192816200029460201b60201c565b505062000735565b600033905090565b6000600a60009054906101000a900473ffffffffffffffffffffffffffffffffffffffff16905081600a60006101000a81548173ffffffffffffffffffffffffffffffffffffffff021916908373ffffffffffffffffffffffffffffffffffffffff1602179055508173ffffffffffffffffffffffffffffffffffffffff168173ffffffffffffffffffffffffffffffffffffffff167f8be0079c531659141344cd1fd0a4f28419497f9722a3daafe3b4186f6b6457e060405160405180910390a35050565b62000278620002c060201b60201c565b80600b9080519060200190620002909291906200037b565b5050565b620002a4620002c060201b60201c565b8060119080519060200190620002bc9291906200037b565b5050565b620002d06200019a60201b60201c565b73ffffffffffffffffffffffffffffffffffffffff16620002f66200035160201b60201c565b73ffffffffffffffffffffffffffffffffffffffff16146200034f576040517f08c379a00000000000000000000000000000000000000000000000000000000081526004016200034690620006ae565b60405180910390fd5b565b6000600a60009054906101000a900473ffffffffffffffffffffffffffffffffffffffff16905090565b8280546200038990620006ff565b90600052602060002090601f016020900481019282620003ad5760008555620003f9565b82601f10620003c857805160ff1916838001178555620003f9565b82800160010185558215620003f9579182015b82811115620003f8578251825591602001919060010190620003db565b5b5090506200040891906200040c565b5090565b5b80821115620004275760008160009055506001016200040d565b5090565b6000604051905090565b600080fd5b600080fd5b600080fd5b600080fd5b6000601f19601f8301169050919050565b7f4e487b7100000000000000000000000000000000000000000000000000000000600052604160045260246000fd5b620004948262000449565b810181811067ffffffffffffffff82111715620004b657620004b56200045a565b5b80604052505050565b6000620004cb6200042b565b9050620004d9828262000489565b919050565b600067ffffffffffffffff821115620004fc57620004fb6200045a565b5b620005078262000449565b9050602081019050919050565b60005b838110156200053457808201518184015260208101905062000517565b8381111562000544576000848401525b50505050565b6000620005616200055b84620004de565b620004bf565b90508281526020810184848401111562000580576200057f62000444565b5b6200058d84828562000514565b509392505050565b600082601f830112620005ad57620005ac6200043f565b5b8151620005bf8482602086016200054a565b91505092915050565b60008060408385031215620005e257620005e162000435565b5b600083015167ffffffffffffffff8111156200060357620006026200043a565b5b620006118582860162000595565b925050602083015167ffffffffffffffff8111156200063557620006346200043a565b5b620006438582860162000595565b9150509250929050565b600082825260208201905092915050565b7f4f776e61626c653a2063616c6c6572206973206e6f7420746865206f776e6572600082015250565b6000620006966020836200064d565b9150620006a3826200065e565b602082019050919050565b60006020820190508181036000830152620006c98162000687565b9050919050565b7f4e487b7100000000000000000000000000000000000000000000000000000000600052602260045260246000fd5b600060028204905060018216806200071857607f821691505b602082108114156200072f576200072e620006d0565b5b50919050565b613d5c80620007456000396000f3fe6080604052600436106101f95760003560e01c80636c0360eb1161010d578063a22cb465116100a0578063c87b56dd1161006f578063c87b56dd146106df578063d5abeb011461071c578063e985e9c514610747578063f2c4ce1e14610784578063f2fde38b146107ad576101f9565b8063a22cb4651461064b578063a475b5dd14610674578063af547af01461068b578063b88d4fde146106b6576101f9565b80637f00c7a6116100dc5780637f00c7a6146105b05780638da5cb5b146105d957806395d89b4114610604578063a0712d681461062f576101f9565b80636c0360eb146105065780636f9fb98a1461053157806370a082311461055c578063715018a614610599576101f9565b80632f745c59116101905780634b76d9971161015f5780634b76d9971461040d5780634f6ccce714610438578063518302271461047557806355f804b3146104a05780636352211e146104c9576101f9565b80632f745c59146103745780633ccfd60b146103b157806342842e0e146103bb57806344a0d68a146103e4576101f9565b8063095ea7b3116101cc578063095ea7b3146102ce57806318160ddd146102f7578063228025e81461032257806323b872dd1461034b576101f9565b806301ffc9a7146101fe57806306fdde031461023b578063081812fc14610266578063081c8c44146102a3575b600080fd5b34801561020a57600080fd5b50610225600480360381019061022091906128af565b6107d6565b60405161023291906128f7565b60405180910390f35b34801561024757600080fd5b50610250610850565b60405161025d91906129ab565b60405180910390f35b34801561027257600080fd5b5061028d60048036038101906102889190612a03565b6108e2565b60405161029a9190612a71565b60405180910390f35b3480156102af57600080fd5b506102b8610928565b6040516102c591906129ab565b60405180910390f35b3480156102da57600080fd5b506102f560048036038101906102f09190612ab8565b6109b6565b005b34801561030357600080fd5b5061030c610ace565b6040516103199190612b07565b60405180910390f35b34801561032e57600080fd5b5061034960048036038101906103449190612a03565b610adb565b005b34801561035757600080fd5b50610372600480360381019061036d9190612b22565b610aed565b005b34801561038057600080fd5b5061039b60048036038101906103969190612ab8565b610b4d565b6040516103a89190612b07565b60405180910390f35b6103b9610bf2565b005b3480156103c757600080fd5b506103e260048036038101906103dd9190612b22565b610c7a565b005b3480156103f057600080fd5b5061040b60048036038101906104069190612a03565b610c9a565b005b34801561041957600080fd5b50610422610cac565b60405161042f9190612b07565b60405180910390f35b34801561044457600080fd5b5061045f600480360381019061045a9190612a03565b610cb2565b60405161046c9190612b07565b60405180910390f35b34801561048157600080fd5b5061048a610d23565b60405161049791906128f7565b60405180910390f35b3480156104ac57600080fd5b506104c760048036038101906104c29190612caa565b610d36565b005b3480156104d557600080fd5b506104f060048036038101906104eb9190612a03565b610d58565b6040516104fd9190612a71565b60405180910390f35b34801561051257600080fd5b5061051b610e0a565b60405161052891906129ab565b60405180910390f35b34801561053d57600080fd5b50610546610e98565b6040516105539190612b07565b60405180910390f35b34801561056857600080fd5b50610583600480360381019061057e9190612cf3565b610ea8565b6040516105909190612b07565b60405180910390f35b3480156105a557600080fd5b506105ae610f60565b005b3480156105bc57600080fd5b506105d760048036038101906105d29190612a03565b610f74565b005b3480156105e557600080fd5b506105ee610f86565b6040516105fb9190612a71565b60405180910390f35b34801561061057600080fd5b50610619610fb0565b60405161062691906129ab565b60405180910390f35b61064960048036038101906106449190612a03565b611042565b005b34801561065757600080fd5b50610672600480360381019061066d9190612d4c565b611173565b005b34801561068057600080fd5b50610689611189565b005b34801561069757600080fd5b506106a06111ae565b6040516106ad9190612b07565b60405180910390f35b3480156106c257600080fd5b506106dd60048036038101906106d89190612e2d565b6111b4565b005b3480156106eb57600080fd5b5061070660048036038101906107019190612a03565b611216565b60405161071391906129ab565b60405180910390f35b34801561072857600080fd5b5061073161136f565b60405161073e9190612b07565b60405180910390f35b34801561075357600080fd5b5061076e60048036038101906107699190612eb0565b611375565b60405161077b91906128f7565b60405180910390f35b34801561079057600080fd5b506107ab60048036038101906107a69190612caa565b611409565b005b3480156107b957600080fd5b506107d460048036038101906107cf9190612cf3565b61142b565b005b60007f780e9d63000000000000000000000000000000000000000000000000000000007bffffffffffffffffffffffffffffffffffffffffffffffffffffffff1916827bffffffffffffffffffffffffffffffffffffffffffffffffffffffff191614806108495750610848826114af565b5b9050919050565b60606000805461085f90612f1f565b80601f016020809104026020016040519081016040528092919081815260200182805461088b90612f1f565b80156108d85780601f106108ad576101008083540402835291602001916108d8565b820191906000526020600020905b8154815290600101906020018083116108bb57829003601f168201915b5050505050905090565b60006108ed82611591565b6004600083815260200190815260200160002060009054906101000a900473ffffffffffffffffffffffffffffffffffffffff169050919050565b6011805461093590612f1f565b80601f016020809104026020016040519081016040528092919081815260200182805461096190612f1f565b80156109ae5780601f10610983576101008083540402835291602001916109ae565b820191906000526020600020905b81548152906001019060200180831161099157829003601f168201915b505050505081565b60006109c182610d58565b90508073ffffffffffffffffffffffffffffffffffffffff168373ffffffffffffffffffffffffffffffffffffffff161415610a32576040517f08c379a0000000000000000000000000000000000000000000000000000000008152600401610a2990612fc3565b60405180910390fd5b8073ffffffffffffffffffffffffffffffffffffffff16610a516115dc565b73ffffffffffffffffffffffffffffffffffffffff161480610a805750610a7f81610a7a6115dc565b611375565b5b610abf576040517f08c379a0000000000000000000000000000000000000000000000000000000008152600401610ab690613055565b60405180910390fd5b610ac983836115e4565b505050565b6000600880549050905090565b610ae361169d565b80600e8190555050565b610afe610af86115dc565b8261171b565b610b3d576040517f08c379a0000000000000000000000000000000000000000000000000000000008152600401610b34906130e7565b60405180910390fd5b610b488383836117b0565b505050565b6000610b5883610ea8565b8210610b99576040517f08c379a0000000000000000000000000000000000000000000000000000000008152600401610b9090613179565b60405180910390fd5b600660008473ffffffffffffffffffffffffffffffffffffffff1673ffffffffffffffffffffffffffffffffffffffff168152602001908152602001600020600083815260200190815260200160002054905092915050565b610bfa61169d565b6000610c04610f86565b73ffffffffffffffffffffffffffffffffffffffff1647604051610c27906131ca565b60006040518083038185875af1925050503d8060008114610c64576040519150601f19603f3d011682016040523d82523d6000602084013e610c69565b606091505b5050905080610c7757600080fd5b50565b610c95838383604051806020016040528060008152506111b4565b505050565b610ca261169d565b80600d8190555050565b60105481565b6000610cbc610ace565b8210610cfd576040517f08c379a0000000000000000000000000000000000000000000000000000000008152600401610cf490613251565b60405180910390fd5b60088281548110610d1157610d10613271565b5b90600052602060002001549050919050565b600f60009054906101000a900460ff1681565b610d3e61169d565b80600b9080519060200190610d549291906127a0565b5050565b6000806002600084815260200190815260200160002060009054906101000a900473ffffffffffffffffffffffffffffffffffffffff169050600073ffffffffffffffffffffffffffffffffffffffff168173ffffffffffffffffffffffffffffffffffffffff161415610e01576040517f08c379a0000000000000000000000000000000000000000000000000000000008152600401610df8906132ec565b60405180910390fd5b80915050919050565b600b8054610e1790612f1f565b80601f0160208091040260200160405190810160405280929190818152602001828054610e4390612f1f565b8015610e905780601f10610e6557610100808354040283529160200191610e90565b820191906000526020600020905b815481529060010190602001808311610e7357829003601f168201915b505050505081565b6000610ea261169d565b47905090565b60008073ffffffffffffffffffffffffffffffffffffffff168273ffffffffffffffffffffffffffffffffffffffff161415610f19576040517f08c379a0000000000000000000000000000000000000000000000000000000008152600401610f109061337e565b60405180910390fd5b600360008373ffffffffffffffffffffffffffffffffffffffff1673ffffffffffffffffffffffffffffffffffffffff168152602001908152602001600020549050919050565b610f6861169d565b610f726000611a17565b565b610f7c61169d565b8060108190555050565b6000600a60009054906101000a900473ffffffffffffffffffffffffffffffffffffffff16905090565b606060018054610fbf90612f1f565b80601f0160208091040260200160405190810160405280929190818152602001828054610feb90612f1f565b80156110385780601f1061100d57610100808354040283529160200191611038565b820191906000526020600020905b81548152906001019060200180831161101b57829003601f168201915b5050505050905090565b600061104c610ace565b905060105482111561105d57600080fd5b600e54828261106c91906133cd565b11156110ad576040517f08c379a00000000000000000000000000000000000000000000000000000000081526004016110a490613495565b60405180910390fd5b6110b5610f86565b73ffffffffffffffffffffffffffffffffffffffff163373ffffffffffffffffffffffffffffffffffffffff16146111385781600d546110f591906134b5565b341015611137576040517f08c379a000000000000000000000000000000000000000000000000000000000815260040161112e9061355b565b60405180910390fd5b5b6000600190505b82811161116e5761115b33828461115691906133cd565b611add565b80806111669061357b565b91505061113f565b505050565b61118561117e6115dc565b8383611afb565b5050565b61119161169d565b6001600f60006101000a81548160ff021916908315150217905550565b600d5481565b6111c56111bf6115dc565b8361171b565b611204576040517f08c379a00000000000000000000000000000000000000000000000000000000081526004016111fb906130e7565b60405180910390fd5b61121084848484611c68565b50505050565b606061122182611cc4565b611260576040517f08c379a000000000000000000000000000000000000000000000000000000000815260040161125790613636565b60405180910390fd5b60001515600f60009054906101000a900460ff161515141561130e576011805461128990612f1f565b80601f01602080910402602001604051908101604052809291908181526020018280546112b590612f1f565b80156113025780601f106112d757610100808354040283529160200191611302565b820191906000526020600020905b8154815290600101906020018083116112e557829003601f168201915b5050505050905061136a565b6000611318611d30565b905060008151116113385760405180602001604052806000815250611366565b8061134284611dc2565b600c60405160200161135693929190613726565b6040516020818303038152906040525b9150505b919050565b600e5481565b6000600560008473ffffffffffffffffffffffffffffffffffffffff1673ffffffffffffffffffffffffffffffffffffffff16815260200190815260200160002060008373ffffffffffffffffffffffffffffffffffffffff1673ffffffffffffffffffffffffffffffffffffffff16815260200190815260200160002060009054906101000a900460ff16905092915050565b61141161169d565b80601190805190602001906114279291906127a0565b5050565b61143361169d565b600073ffffffffffffffffffffffffffffffffffffffff168173ffffffffffffffffffffffffffffffffffffffff1614156114a3576040517f08c379a000000000000000000000000000000000000000000000000000000000815260040161149a906137c9565b60405180910390fd5b6114ac81611a17565b50565b60007f80ac58cd000000000000000000000000000000000000000000000000000000007bffffffffffffffffffffffffffffffffffffffffffffffffffffffff1916827bffffffffffffffffffffffffffffffffffffffffffffffffffffffff1916148061157a57507f5b5e139f000000000000000000000000000000000000000000000000000000007bffffffffffffffffffffffffffffffffffffffffffffffffffffffff1916827bffffffffffffffffffffffffffffffffffffffffffffffffffffffff1916145b8061158a575061158982611f23565b5b9050919050565b61159a81611cc4565b6115d9576040517f08c379a00000000000000000000000000000000000000000000000000000000081526004016115d0906132ec565b60405180910390fd5b50565b600033905090565b816004600083815260200190815260200160002060006101000a81548173ffffffffffffffffffffffffffffffffffffffff021916908373ffffffffffffffffffffffffffffffffffffffff160217905550808273ffffffffffffffffffffffffffffffffffffffff1661165783610d58565b73ffffffffffffffffffffffffffffffffffffffff167f8c5be1e5ebec7d5bd14f71427d1e84f3dd0314c0f7b2291e5b200ac8c7c3b92560405160405180910390a45050565b6116a56115dc565b73ffffffffffffffffffffffffffffffffffffffff166116c3610f86565b73ffffffffffffffffffffffffffffffffffffffff1614611719576040517f08c379a000000000000000000000000000000000000000000000000000000000815260040161171090613835565b60405180910390fd5b565b60008061172783610d58565b90508073ffffffffffffffffffffffffffffffffffffffff168473ffffffffffffffffffffffffffffffffffffffff16148061176957506117688185611375565b5b806117a757508373ffffffffffffffffffffffffffffffffffffffff1661178f846108e2565b73ffffffffffffffffffffffffffffffffffffffff16145b91505092915050565b8273ffffffffffffffffffffffffffffffffffffffff166117d082610d58565b73ffffffffffffffffffffffffffffffffffffffff1614611826576040517f08c379a000000000000000000000000000000000000000000000000000000000815260040161181d906138c7565b60405180910390fd5b600073ffffffffffffffffffffffffffffffffffffffff168273ffffffffffffffffffffffffffffffffffffffff161415611896576040517f08c379a000000000000000000000000000000000000000000000000000000000815260040161188d90613959565b60405180910390fd5b6118a1838383611f8d565b6118ac6000826115e4565b6001600360008573ffffffffffffffffffffffffffffffffffffffff1673ffffffffffffffffffffffffffffffffffffffff16815260200190815260200160002060008282546118fc9190613979565b925050819055506001600360008473ffffffffffffffffffffffffffffffffffffffff1673ffffffffffffffffffffffffffffffffffffffff168152602001908152602001600020600082825461195391906133cd565b92505081905550816002600083815260200190815260200160002060006101000a81548173ffffffffffffffffffffffffffffffffffffffff021916908373ffffffffffffffffffffffffffffffffffffffff160217905550808273ffffffffffffffffffffffffffffffffffffffff168473ffffffffffffffffffffffffffffffffffffffff167fddf252ad1be2c89b69c2b068fc378daa952ba7f163c4a11628f55a4df523b3ef60405160405180910390a4611a128383836120a1565b505050565b6000600a60009054906101000a900473ffffffffffffffffffffffffffffffffffffffff16905081600a60006101000a81548173ffffffffffffffffffffffffffffffffffffffff021916908373ffffffffffffffffffffffffffffffffffffffff1602179055508173ffffffffffffffffffffffffffffffffffffffff168173ffffffffffffffffffffffffffffffffffffffff167f8be0079c531659141344cd1fd0a4f28419497f9722a3daafe3b4186f6b6457e060405160405180910390a35050565b611af78282604051806020016040528060008152506120a6565b5050565b8173ffffffffffffffffffffffffffffffffffffffff168373ffffffffffffffffffffffffffffffffffffffff161415611b6a576040517f08c379a0000000000000000000000000000000000000000000000000000000008152600401611b61906139f9565b60405180910390fd5b80600560008573ffffffffffffffffffffffffffffffffffffffff1673ffffffffffffffffffffffffffffffffffffffff16815260200190815260200160002060008473ffffffffffffffffffffffffffffffffffffffff1673ffffffffffffffffffffffffffffffffffffffff16815260200190815260200160002060006101000a81548160ff0219169083151502179055508173ffffffffffffffffffffffffffffffffffffffff168373ffffffffffffffffffffffffffffffffffffffff167f17307eab39ab6107e8899845ad3d59bd9653f200f220920489ca2b5937696c3183604051611c5b91906128f7565b60405180910390a3505050565b611c738484846117b0565b611c7f84848484612101565b611cbe576040517f08c379a0000000000000000000000000000000000000000000000000000000008152600401611cb590613a8b565b60405180910390fd5b50505050565b60008073ffffffffffffffffffffffffffffffffffffffff166002600084815260200190815260200160002060009054906101000a900473ffffffffffffffffffffffffffffffffffffffff1673ffffffffffffffffffffffffffffffffffffffff1614159050919050565b6060600b8054611d3f90612f1f565b80601f0160208091040260200160405190810160405280929190818152602001828054611d6b90612f1f565b8015611db85780601f10611d8d57610100808354040283529160200191611db8565b820191906000526020600020905b815481529060010190602001808311611d9b57829003601f168201915b5050505050905090565b60606000821415611e0a576040518060400160405280600181526020017f30000000000000000000000000000000000000000000000000000000000000008152509050611f1e565b600082905060005b60008214611e3c578080611e259061357b565b915050600a82611e359190613ada565b9150611e12565b60008167ffffffffffffffff811115611e5857611e57612b7f565b5b6040519080825280601f01601f191660200182016040528015611e8a5781602001600182028036833780820191505090505b5090505b60008514611f1757600182611ea39190613979565b9150600a85611eb29190613b0b565b6030611ebe91906133cd565b60f81b818381518110611ed457611ed3613271565b5b60200101907effffffffffffffffffffffffffffffffffffffffffffffffffffffffffffff1916908160001a905350600a85611f109190613ada565b9450611e8e565b8093505050505b919050565b60007f01ffc9a7000000000000000000000000000000000000000000000000000000007bffffffffffffffffffffffffffffffffffffffffffffffffffffffff1916827bffffffffffffffffffffffffffffffffffffffffffffffffffffffff1916149050919050565b611f98838383612298565b600073ffffffffffffffffffffffffffffffffffffffff168373ffffffffffffffffffffffffffffffffffffffff161415611fdb57611fd68161229d565b61201a565b8173ffffffffffffffffffffffffffffffffffffffff168373ffffffffffffffffffffffffffffffffffffffff16146120195761201883826122e6565b5b5b600073ffffffffffffffffffffffffffffffffffffffff168273ffffffffffffffffffffffffffffffffffffffff16141561205d5761205881612453565b61209c565b8273ffffffffffffffffffffffffffffffffffffffff168273ffffffffffffffffffffffffffffffffffffffff161461209b5761209a8282612524565b5b5b505050565b505050565b6120b083836125a3565b6120bd6000848484612101565b6120fc576040517f08c379a00000000000000000000000000000000000000000000000000000000081526004016120f390613a8b565b60405180910390fd5b505050565b60006121228473ffffffffffffffffffffffffffffffffffffffff1661277d565b1561228b578373ffffffffffffffffffffffffffffffffffffffff1663150b7a0261214b6115dc565b8786866040518563ffffffff1660e01b815260040161216d9493929190613b91565b602060405180830381600087803b15801561218757600080fd5b505af19250505080156121b857506040513d601f19601f820116820180604052508101906121b59190613bf2565b60015b61223b573d80600081146121e8576040519150601f19603f3d011682016040523d82523d6000602084013e6121ed565b606091505b50600081511415612233576040517f08c379a000000000000000000000000000000000000000000000000000000000815260040161222a90613a8b565b60405180910390fd5b805181602001fd5b63150b7a0260e01b7bffffffffffffffffffffffffffffffffffffffffffffffffffffffff1916817bffffffffffffffffffffffffffffffffffffffffffffffffffffffff191614915050612290565b600190505b949350505050565b505050565b6008805490506009600083815260200190815260200160002081905550600881908060018154018082558091505060019003906000526020600020016000909190919091505550565b600060016122f384610ea8565b6122fd9190613979565b90506000600760008481526020019081526020016000205490508181146123e2576000600660008673ffffffffffffffffffffffffffffffffffffffff1673ffffffffffffffffffffffffffffffffffffffff168152602001908152602001600020600084815260200190815260200160002054905080600660008773ffffffffffffffffffffffffffffffffffffffff1673ffffffffffffffffffffffffffffffffffffffff168152602001908152602001600020600084815260200190815260200160002081905550816007600083815260200190815260200160002081905550505b6007600084815260200190815260200160002060009055600660008573ffffffffffffffffffffffffffffffffffffffff1673ffffffffffffffffffffffffffffffffffffffff16815260200190815260200160002060008381526020019081526020016000206000905550505050565b600060016008805490506124679190613979565b905060006009600084815260200190815260200160002054905060006008838154811061249757612496613271565b5b9060005260206000200154905080600883815481106124b9576124b8613271565b5b90600052602060002001819055508160096000838152602001908152602001600020819055506009600085815260200190815260200160002060009055600880548061250857612507613c1f565b5b6001900381819060005260206000200160009055905550505050565b600061252f83610ea8565b905081600660008573ffffffffffffffffffffffffffffffffffffffff1673ffffffffffffffffffffffffffffffffffffffff168152602001908152602001600020600083815260200190815260200160002081905550806007600084815260200190815260200160002081905550505050565b600073ffffffffffffffffffffffffffffffffffffffff168273ffffffffffffffffffffffffffffffffffffffff161415612613576040517f08c379a000000000000000000000000000000000000000000000000000000000815260040161260a90613c9a565b60405180910390fd5b61261c81611cc4565b1561265c576040517f08c379a000000000000000000000000000000000000000000000000000000000815260040161265390613d06565b60405180910390fd5b61266860008383611f8d565b6001600360008473ffffffffffffffffffffffffffffffffffffffff1673ffffffffffffffffffffffffffffffffffffffff16815260200190815260200160002060008282546126b891906133cd565b92505081905550816002600083815260200190815260200160002060006101000a81548173ffffffffffffffffffffffffffffffffffffffff021916908373ffffffffffffffffffffffffffffffffffffffff160217905550808273ffffffffffffffffffffffffffffffffffffffff16600073ffffffffffffffffffffffffffffffffffffffff167fddf252ad1be2c89b69c2b068fc378daa952ba7f163c4a11628f55a4df523b3ef60405160405180910390a4612779600083836120a1565b5050565b6000808273ffffffffffffffffffffffffffffffffffffffff163b119050919050565b8280546127ac90612f1f565b90600052602060002090601f0160209004810192826127ce5760008555612815565b82601f106127e757805160ff1916838001178555612815565b82800160010185558215612815579182015b828111156128145782518255916020019190600101906127f9565b5b5090506128229190612826565b5090565b5b8082111561283f576000816000905550600101612827565b5090565b6000604051905090565b600080fd5b600080fd5b60007fffffffff0000000000000000000000000000000000000000000000000000000082169050919050565b61288c81612857565b811461289757600080fd5b50565b6000813590506128a981612883565b92915050565b6000602082840312156128c5576128c461284d565b5b60006128d38482850161289a565b91505092915050565b60008115159050919050565b6128f1816128dc565b82525050565b600060208201905061290c60008301846128e8565b92915050565b600081519050919050565b600082825260208201905092915050565b60005b8381101561294c578082015181840152602081019050612931565b8381111561295b576000848401525b50505050565b6000601f19601f8301169050919050565b600061297d82612912565b612987818561291d565b935061299781856020860161292e565b6129a081612961565b840191505092915050565b600060208201905081810360008301526129c58184612972565b905092915050565b6000819050919050565b6129e0816129cd565b81146129eb57600080fd5b50565b6000813590506129fd816129d7565b92915050565b600060208284031215612a1957612a1861284d565b5b6000612a27848285016129ee565b91505092915050565b600073ffffffffffffffffffffffffffffffffffffffff82169050919050565b6000612a5b82612a30565b9050919050565b612a6b81612a50565b82525050565b6000602082019050612a866000830184612a62565b92915050565b612a9581612a50565b8114612aa057600080fd5b50565b600081359050612ab281612a8c565b92915050565b60008060408385031215612acf57612ace61284d565b5b6000612add85828601612aa3565b9250506020612aee858286016129ee565b9150509250929050565b612b01816129cd565b82525050565b6000602082019050612b1c6000830184612af8565b92915050565b600080600060608486031215612b3b57612b3a61284d565b5b6000612b4986828701612aa3565b9350506020612b5a86828701612aa3565b9250506040612b6b868287016129ee565b9150509250925092565b600080fd5b600080fd5b7f4e487b7100000000000000000000000000000000000000000000000000000000600052604160045260246000fd5b612bb782612961565b810181811067ffffffffffffffff82111715612bd657612bd5612b7f565b5b80604052505050565b6000612be9612843565b9050612bf58282612bae565b919050565b600067ffffffffffffffff821115612c1557612c14612b7f565b5b612c1e82612961565b9050602081019050919050565b82818337600083830152505050565b6000612c4d612c4884612bfa565b612bdf565b905082815260208101848484011115612c6957612c68612b7a565b5b612c74848285612c2b565b509392505050565b600082601f830112612c9157612c90612b75565b5b8135612ca1848260208601612c3a565b91505092915050565b600060208284031215612cc057612cbf61284d565b5b600082013567ffffffffffffffff811115612cde57612cdd612852565b5b612cea84828501612c7c565b91505092915050565b600060208284031215612d0957612d0861284d565b5b6000612d1784828501612aa3565b91505092915050565b612d29816128dc565b8114612d3457600080fd5b50565b600081359050612d4681612d20565b92915050565b60008060408385031215612d6357612d6261284d565b5b6000612d7185828601612aa3565b9250506020612d8285828601612d37565b9150509250929050565b600067ffffffffffffffff821115612da757612da6612b7f565b5b612db082612961565b9050602081019050919050565b6000612dd0612dcb84612d8c565b612bdf565b905082815260208101848484011115612dec57612deb612b7a565b5b612df7848285612c2b565b509392505050565b600082601f830112612e1457612e13612b75565b5b8135612e24848260208601612dbd565b91505092915050565b60008060008060808587031215612e4757612e4661284d565b5b6000612e5587828801612aa3565b9450506020612e6687828801612aa3565b9350506040612e77878288016129ee565b925050606085013567ffffffffffffffff811115612e9857612e97612852565b5b612ea487828801612dff565b91505092959194509250565b60008060408385031215612ec757612ec661284d565b5b6000612ed585828601612aa3565b9250506020612ee685828601612aa3565b9150509250929050565b7f4e487b7100000000000000000000000000000000000000000000000000000000600052602260045260246000fd5b60006002820490506001821680612f3757607f821691505b60208210811415612f4b57612f4a612ef0565b5b50919050565b7f4552433732313a20617070726f76616c20746f2063757272656e74206f776e6560008201527f7200000000000000000000000000000000000000000000000000000000000000602082015250565b6000612fad60218361291d565b9150612fb882612f51565b604082019050919050565b60006020820190508181036000830152612fdc81612fa0565b9050919050565b7f4552433732313a20617070726f76652063616c6c6572206973206e6f7420746f60008201527f6b656e206f776e6572206e6f7220617070726f76656420666f7220616c6c0000602082015250565b600061303f603e8361291d565b915061304a82612fe3565b604082019050919050565b6000602082019050818103600083015261306e81613032565b9050919050565b7f4552433732313a2063616c6c6572206973206e6f7420746f6b656e206f776e6560008201527f72206e6f7220617070726f766564000000000000000000000000000000000000602082015250565b60006130d1602e8361291d565b91506130dc82613075565b604082019050919050565b60006020820190508181036000830152613100816130c4565b9050919050565b7f455243373231456e756d657261626c653a206f776e657220696e646578206f7560008201527f74206f6620626f756e6473000000000000000000000000000000000000000000602082015250565b6000613163602b8361291d565b915061316e82613107565b604082019050919050565b6000602082019050818103600083015261319281613156565b9050919050565b600081905092915050565b50565b60006131b4600083613199565b91506131bf826131a4565b600082019050919050565b60006131d5826131a7565b9150819050919050565b7f455243373231456e756d657261626c653a20676c6f62616c20696e646578206f60008201527f7574206f6620626f756e64730000000000000000000000000000000000000000602082015250565b600061323b602c8361291d565b9150613246826131df565b604082019050919050565b6000602082019050818103600083015261326a8161322e565b9050919050565b7f4e487b7100000000000000000000000000000000000000000000000000000000600052603260045260246000fd5b7f4552433732313a20696e76616c696420746f6b656e2049440000000000000000600082015250565b60006132d660188361291d565b91506132e1826132a0565b602082019050919050565b60006020820190508181036000830152613305816132c9565b9050919050565b7f4552433732313a2061646472657373207a65726f206973206e6f74206120766160008201527f6c6964206f776e65720000000000000000000000000000000000000000000000602082015250565b600061336860298361291d565b91506133738261330c565b604082019050919050565b600060208201905081810360008301526133978161335b565b9050919050565b7f4e487b7100000000000000000000000000000000000000000000000000000000600052601160045260246000fd5b60006133d8826129cd565b91506133e3836129cd565b9250827fffffffffffffffffffffffffffffffffffffffffffffffffffffffffffffffff038211156134185761341761339e565b5b828201905092915050565b7f45766572797468696e6773206173206265656e206d696e7465642120536f727260008201527f7900000000000000000000000000000000000000000000000000000000000000602082015250565b600061347f60218361291d565b915061348a82613423565b604082019050919050565b600060208201905081810360008301526134ae81613472565b9050919050565b60006134c0826129cd565b91506134cb836129cd565b9250817fffffffffffffffffffffffffffffffffffffffffffffffffffffffffffffffff04831182151516156135045761350361339e565b5b828202905092915050565b7f596f75206e65656420746f207370656e64206d6f7265206d6f6e657900000000600082015250565b6000613545601c8361291d565b91506135508261350f565b602082019050919050565b6000602082019050818103600083015261357481613538565b9050919050565b6000613586826129cd565b91507fffffffffffffffffffffffffffffffffffffffffffffffffffffffffffffffff8214156135b9576135b861339e565b5b600182019050919050565b7f4552433732314d657461646174613a2055524920717565727920666f72206e6f60008201527f6e6578697374656e7420746f6b656e0000000000000000000000000000000000602082015250565b6000613620602f8361291d565b915061362b826135c4565b604082019050919050565b6000602082019050818103600083015261364f81613613565b9050919050565b600081905092915050565b600061366c82612912565b6136768185613656565b935061368681856020860161292e565b80840191505092915050565b60008190508160005260206000209050919050565b600081546136b481612f1f565b6136be8186613656565b945060018216600081146136d957600181146136ea5761371d565b60ff1983168652818601935061371d565b6136f385613692565b60005b83811015613715578154818901526001820191506020810190506136f6565b838801955050505b50505092915050565b60006137328286613661565b915061373e8285613661565b915061374a82846136a7565b9150819050949350505050565b7f4f776e61626c653a206e6577206f776e657220697320746865207a65726f206160008201527f6464726573730000000000000000000000000000000000000000000000000000602082015250565b60006137b360268361291d565b91506137be82613757565b604082019050919050565b600060208201905081810360008301526137e2816137a6565b9050919050565b7f4f776e61626c653a2063616c6c6572206973206e6f7420746865206f776e6572600082015250565b600061381f60208361291d565b915061382a826137e9565b602082019050919050565b6000602082019050818103600083015261384e81613812565b9050919050565b7f4552433732313a207472616e736665722066726f6d20696e636f72726563742060008201527f6f776e6572000000000000000000000000000000000000000000000000000000602082015250565b60006138b160258361291d565b91506138bc82613855565b604082019050919050565b600060208201905081810360008301526138e0816138a4565b9050919050565b7f4552433732313a207472616e7366657220746f20746865207a65726f2061646460008201527f7265737300000000000000000000000000000000000000000000000000000000602082015250565b600061394360248361291d565b915061394e826138e7565b604082019050919050565b6000602082019050818103600083015261397281613936565b9050919050565b6000613984826129cd565b915061398f836129cd565b9250828210156139a2576139a161339e565b5b828203905092915050565b7f4552433732313a20617070726f766520746f2063616c6c657200000000000000600082015250565b60006139e360198361291d565b91506139ee826139ad565b602082019050919050565b60006020820190508181036000830152613a12816139d6565b9050919050565b7f4552433732313a207472616e7366657220746f206e6f6e20455243373231526560008201527f63656976657220696d706c656d656e7465720000000000000000000000000000602082015250565b6000613a7560328361291d565b9150613a8082613a19565b604082019050919050565b60006020820190508181036000830152613aa481613a68565b9050919050565b7f4e487b7100000000000000000000000000000000000000000000000000000000600052601260045260246000fd5b6000613ae5826129cd565b9150613af0836129cd565b925082613b0057613aff613aab565b5b828204905092915050565b6000613b16826129cd565b9150613b21836129cd565b925082613b3157613b30613aab565b5b828206905092915050565b600081519050919050565b600082825260208201905092915050565b6000613b6382613b3c565b613b6d8185613b47565b9350613b7d81856020860161292e565b613b8681612961565b840191505092915050565b6000608082019050613ba66000830187612a62565b613bb36020830186612a62565b613bc06040830185612af8565b8181036060830152613bd28184613b58565b905095945050505050565b600081519050613bec81612883565b92915050565b600060208284031215613c0857613c0761284d565b5b6000613c1684828501613bdd565b91505092915050565b7f4e487b7100000000000000000000000000000000000000000000000000000000600052603160045260246000fd5b7f4552433732313a206d696e7420746f20746865207a65726f2061646472657373600082015250565b6000613c8460208361291d565b9150613c8f82613c4e565b602082019050919050565b60006020820190508181036000830152613cb381613c77565b9050919050565b7f4552433732313a20746f6b656e20616c7265616479206d696e74656400000000600082015250565b6000613cf0601c8361291d565b9150613cfb82613cba565b602082019050919050565b60006020820190508181036000830152613d1f81613ce3565b905091905056fea26469706673582212209805ba787e0dfbdcc2c84ab517ceb145b141f9d675ce697b28073a6288a0304864736f6c63430008090033",
     "devdoc": {
          "author": "Sisco999",
          "kind": "dev",
          "methods": {
               "approve(address,uint256)": {
                    "details": "See {IERC721-approve}."
               },
               "balanceOf(address)": {
                    "details": "See {IERC721-balanceOf}."
               },
               "getApproved(uint256)": {
                    "details": "See {IERC721-getApproved}."
               },
               "isApprovedForAll(address,address)": {
                    "details": "See {IERC721-isApprovedForAll}."
               },
               "name()": {
                    "details": "See {IERC721Metadata-name}."
               },
               "owner()": {
                    "details": "Returns the address of the current owner."
               },
               "ownerOf(uint256)": {
                    "details": "See {IERC721-ownerOf}."
               },
               "renounceOwnership()": {
                    "details": "Leaves the contract without owner. It will not be possible to call `onlyOwner` functions anymore. Can only be called by the current owner. NOTE: Renouncing ownership will leave the contract without an owner, thereby removing any functionality that is only available to the owner."
               },
               "safeTransferFrom(address,address,uint256)": {
                    "details": "See {IERC721-safeTransferFrom}."
               },
               "safeTransferFrom(address,address,uint256,bytes)": {
                    "details": "See {IERC721-safeTransferFrom}."
               },
               "setApprovalForAll(address,bool)": {
                    "details": "See {IERC721-setApprovalForAll}."
               },
               "supportsInterface(bytes4)": {
                    "details": "See {IERC165-supportsInterface}."
               },
               "symbol()": {
                    "details": "See {IERC721Metadata-symbol}."
               },
               "tokenByIndex(uint256)": {
                    "details": "See {IERC721Enumerable-tokenByIndex}."
               },
               "tokenOfOwnerByIndex(address,uint256)": {
                    "details": "See {IERC721Enumerable-tokenOfOwnerByIndex}."
               },
               "tokenURI(uint256)": {
                    "details": "See {IERC721Metadata-tokenURI}."
               },
               "totalSupply()": {
                    "details": "See {IERC721Enumerable-totalSupply}."
               },
               "transferFrom(address,address,uint256)": {
                    "details": "See {IERC721-transferFrom}."
               },
               "transferOwnership(address)": {
                    "details": "Transfers ownership of the contract to a new account (`newOwner`). Can only be called by the current owner."
               }
          },
          "title": "A NFT Colection Minting Contract",
          "version": 1
     },
     "userdoc": {
          "kind": "user",
          "methods": {},
          "notice": "This contract is to make a NFT minting website",
          "version": 1
     },
     "storageLayout": {
          "storage": [
               {
                    "astId": 138,
                    "contract": "contracts/MintingDapp.sol:MintingDapp",
                    "label": "_name",
                    "offset": 0,
                    "slot": "0",
                    "type": "t_string_storage"
               },
               {
                    "astId": 140,
                    "contract": "contracts/MintingDapp.sol:MintingDapp",
                    "label": "_symbol",
                    "offset": 0,
                    "slot": "1",
                    "type": "t_string_storage"
               },
               {
                    "astId": 144,
                    "contract": "contracts/MintingDapp.sol:MintingDapp",
                    "label": "_owners",
                    "offset": 0,
                    "slot": "2",
                    "type": "t_mapping(t_uint256,t_address)"
               },
               {
                    "astId": 148,
                    "contract": "contracts/MintingDapp.sol:MintingDapp",
                    "label": "_balances",
                    "offset": 0,
                    "slot": "3",
                    "type": "t_mapping(t_address,t_uint256)"
               },
               {
                    "astId": 152,
                    "contract": "contracts/MintingDapp.sol:MintingDapp",
                    "label": "_tokenApprovals",
                    "offset": 0,
                    "slot": "4",
                    "type": "t_mapping(t_uint256,t_address)"
               },
               {
                    "astId": 158,
                    "contract": "contracts/MintingDapp.sol:MintingDapp",
                    "label": "_operatorApprovals",
                    "offset": 0,
                    "slot": "5",
                    "type": "t_mapping(t_address,t_mapping(t_address,t_bool))"
               },
               {
                    "astId": 1128,
                    "contract": "contracts/MintingDapp.sol:MintingDapp",
                    "label": "_ownedTokens",
                    "offset": 0,
                    "slot": "6",
                    "type": "t_mapping(t_address,t_mapping(t_uint256,t_uint256))"
               },
               {
                    "astId": 1132,
                    "contract": "contracts/MintingDapp.sol:MintingDapp",
                    "label": "_ownedTokensIndex",
                    "offset": 0,
                    "slot": "7",
                    "type": "t_mapping(t_uint256,t_uint256)"
               },
               {
                    "astId": 1135,
                    "contract": "contracts/MintingDapp.sol:MintingDapp",
                    "label": "_allTokens",
                    "offset": 0,
                    "slot": "8",
                    "type": "t_array(t_uint256)dyn_storage"
               },
               {
                    "astId": 1139,
                    "contract": "contracts/MintingDapp.sol:MintingDapp",
                    "label": "_allTokensIndex",
                    "offset": 0,
                    "slot": "9",
                    "type": "t_mapping(t_uint256,t_uint256)"
               },
               {
                    "astId": 7,
                    "contract": "contracts/MintingDapp.sol:MintingDapp",
                    "label": "_owner",
                    "offset": 0,
                    "slot": "10",
                    "type": "t_address"
               },
               {
                    "astId": 2102,
                    "contract": "contracts/MintingDapp.sol:MintingDapp",
                    "label": "baseURI",
                    "offset": 0,
                    "slot": "11",
                    "type": "t_string_storage"
               },
               {
                    "astId": 2105,
                    "contract": "contracts/MintingDapp.sol:MintingDapp",
                    "label": "i_baseExtension",
                    "offset": 0,
                    "slot": "12",
                    "type": "t_string_storage"
               },
               {
                    "astId": 2108,
                    "contract": "contracts/MintingDapp.sol:MintingDapp",
                    "label": "s_cost",
                    "offset": 0,
                    "slot": "13",
                    "type": "t_uint256"
               },
               {
                    "astId": 2111,
                    "contract": "contracts/MintingDapp.sol:MintingDapp",
                    "label": "maxSupply",
                    "offset": 0,
                    "slot": "14",
                    "type": "t_uint256"
               },
               {
                    "astId": 2114,
                    "contract": "contracts/MintingDapp.sol:MintingDapp",
                    "label": "revealed",
                    "offset": 0,
                    "slot": "15",
                    "type": "t_bool"
               },
               {
                    "astId": 2117,
                    "contract": "contracts/MintingDapp.sol:MintingDapp",
                    "label": "s_maxMintAmount",
                    "offset": 0,
                    "slot": "16",
                    "type": "t_uint256"
               },
               {
                    "astId": 2119,
                    "contract": "contracts/MintingDapp.sol:MintingDapp",
                    "label": "notRevealedUri",
                    "offset": 0,
                    "slot": "17",
                    "type": "t_string_storage"
               }
          ],
          "types": {
               "t_address": {
                    "encoding": "inplace",
                    "label": "address",
                    "numberOfBytes": "20"
               },
               "t_array(t_uint256)dyn_storage": {
                    "base": "t_uint256",
                    "encoding": "dynamic_array",
                    "label": "uint256[]",
                    "numberOfBytes": "32"
               },
               "t_bool": {
                    "encoding": "inplace",
                    "label": "bool",
                    "numberOfBytes": "1"
               },
               "t_mapping(t_address,t_bool)": {
                    "encoding": "mapping",
                    "key": "t_address",
                    "label": "mapping(address => bool)",
                    "numberOfBytes": "32",
                    "value": "t_bool"
               },
               "t_mapping(t_address,t_mapping(t_address,t_bool))": {
                    "encoding": "mapping",
                    "key": "t_address",
                    "label": "mapping(address => mapping(address => bool))",
                    "numberOfBytes": "32",
                    "value": "t_mapping(t_address,t_bool)"
               },
               "t_mapping(t_address,t_mapping(t_uint256,t_uint256))": {
                    "encoding": "mapping",
                    "key": "t_address",
                    "label": "mapping(address => mapping(uint256 => uint256))",
                    "numberOfBytes": "32",
                    "value": "t_mapping(t_uint256,t_uint256)"
               },
               "t_mapping(t_address,t_uint256)": {
                    "encoding": "mapping",
                    "key": "t_address",
                    "label": "mapping(address => uint256)",
                    "numberOfBytes": "32",
                    "value": "t_uint256"
               },
               "t_mapping(t_uint256,t_address)": {
                    "encoding": "mapping",
                    "key": "t_uint256",
                    "label": "mapping(uint256 => address)",
                    "numberOfBytes": "32",
                    "value": "t_address"
               },
               "t_mapping(t_uint256,t_uint256)": {
                    "encoding": "mapping",
                    "key": "t_uint256",
                    "label": "mapping(uint256 => uint256)",
                    "numberOfBytes": "32",
                    "value": "t_uint256"
               },
               "t_string_storage": {
                    "encoding": "bytes",
                    "label": "string",
                    "numberOfBytes": "32"
               },
               "t_uint256": {
                    "encoding": "inplace",
                    "label": "uint256",
                    "numberOfBytes": "32"
               }
          }
     }
}